{
  "contracts/task2.sol": {
    "Voting": {
      "abi": [
        {
          "inputs": [],
          "stateMutability": "nonpayable",
          "type": "constructor"
        },
        {
          "inputs": [
            {
              "internalType": "address[]",
              "name": "_candidatesAddresses",
              "type": "address[]"
            }
          ],
          "name": "addVoting",
          "outputs": [],
          "stateMutability": "nonpayable",
          "type": "function"
        },
        {
          "inputs": [],
          "name": "fees",
          "outputs": [
            {
              "internalType": "uint256",
              "name": "",
              "type": "uint256"
            }
          ],
          "stateMutability": "view",
          "type": "function"
        },
        {
          "inputs": [
            {
              "internalType": "uint256",
              "name": "poll",
              "type": "uint256"
            }
          ],
          "name": "finalizePoll",
          "outputs": [],
          "stateMutability": "payable",
          "type": "function"
        },
        {
          "inputs": [],
          "name": "getAmountOfPolls",
          "outputs": [
            {
              "internalType": "uint256",
              "name": "",
              "type": "uint256"
            }
          ],
          "stateMutability": "view",
          "type": "function"
        },
        {
          "inputs": [
            {
              "internalType": "uint256",
              "name": "poll",
              "type": "uint256"
            }
          ],
          "name": "getPollCandidates",
          "outputs": [
            {
              "internalType": "address[]",
              "name": "",
              "type": "address[]"
            }
          ],
          "stateMutability": "view",
          "type": "function"
        },
        {
          "inputs": [
            {
              "internalType": "uint256",
              "name": "poll",
              "type": "uint256"
            }
          ],
          "name": "getPollInfo",
          "outputs": [
            {
              "internalType": "address[]",
              "name": "",
              "type": "address[]"
            },
            {
              "internalType": "bool",
              "name": "",
              "type": "bool"
            },
            {
              "internalType": "uint256",
              "name": "",
              "type": "uint256"
            }
          ],
          "stateMutability": "view",
          "type": "function"
        },
        {
          "inputs": [],
          "name": "owner",
          "outputs": [
            {
              "internalType": "address",
              "name": "",
              "type": "address"
            }
          ],
          "stateMutability": "view",
          "type": "function"
        },
        {
          "inputs": [
            {
              "internalType": "uint256",
              "name": "poll",
              "type": "uint256"
            },
            {
              "internalType": "address",
              "name": "voteForCandidate",
              "type": "address"
            }
          ],
          "name": "vote",
          "outputs": [
            {
              "internalType": "bool",
              "name": "",
              "type": "bool"
            }
          ],
          "stateMutability": "payable",
          "type": "function"
        },
        {
          "inputs": [],
          "name": "withdrawFees",
          "outputs": [],
          "stateMutability": "payable",
          "type": "function"
        }
      ],
      "evm": {
        "bytecode": {
          "linkReferences": {},
          "object": "608060405260006002553480156200001657600080fd5b506200004b7f4a59351fe9f27d441942d26a7625019561abac6c066ade60c1c6f45a3eb76b8060001b620000f960201b60201c565b6200007f7f52e3b889cd4e55784d82426b754f070ac48de67d784080f4fe77f1b3e2acfbee60001b620000f960201b60201c565b620000b37fb84836808fe3ce2dfd90f651cef2c1f60973ec063f9c3e185667c03fa4511c2a60001b620000f960201b60201c565b336000806101000a81548173ffffffffffffffffffffffffffffffffffffffff021916908373ffffffffffffffffffffffffffffffffffffffff160217905550620000fc565b50565b612cf5806200010c6000396000f3fe6080604052600436106100855760003560e01c8063476343ee11610059578063476343ee1461016157806356597e4f1461016b5780637a798050146101875780638da5cb5b146101b05780639af1d35a146101db57610085565b80628e29971461008a57806302d947ef146100b557806329b8f44a146100e55780633d0a64e214610124575b600080fd5b34801561009657600080fd5b5061009f610206565b6040516100ac9190612494565b60405180910390f35b6100cf60048036038101906100ca9190612543565b610297565b6040516100dc919061259e565b60405180910390f35b3480156100f157600080fd5b5061010c600480360381019061010791906125b9565b610e6e565b60405161011b939291906126a4565b60405180910390f35b34801561013057600080fd5b5061014b600480360381019061014691906125b9565b6111d2565b60405161015891906126e2565b60405180910390f35b610169611432565b005b610185600480360381019061018091906125b9565b611629565b005b34801561019357600080fd5b506101ae60048036038101906101a99190612769565b611a04565b005b3480156101bc57600080fd5b506101c5611f98565b6040516101d291906127c5565b60405180910390f35b3480156101e757600080fd5b506101f0611fbc565b6040516101fd9190612494565b60405180910390f35b60006102347f2e9a73b1472c05fbe22ac1537406132aa10f5c07359dacff52aaad5463cbb16f60001b611fc2565b6102607fc720e1b47e8378efe0f0c7e07ff8fd5468491bb250343af9a3836df5c0729a9260001b611fc2565b61028c7f26dcb315eaccef1726ebd2e346eb017bd7a342cd3f5159db7e3c4e844048c82660001b611fc2565b600180549050905090565b60006102c57fc7ae7de24529fcf6a8b6832b34beba9bf44527c2182b5d8a6fd2886edb611e1760001b611fc2565b6102f17f8138f04eedcd49f57bb6396bc5a0bd0e74fb1e6238ddb60432ba530b2c5834d460001b611fc2565b61031d7f7154ce2ec3f664368098ba1936de1f863b96cdc7fc90c396c54e746a20d5b23860001b611fc2565b6103497f5dd161e39408f774bb9c6a369937cdf00cb8b97b62649cb83a053242bf76c52160001b611fc2565b662386f26fc100003414610392576040517f08c379a00000000000000000000000000000000000000000000000000000000081526004016103899061283d565b60405180910390fd5b6103be7fbf51eee7ed818b872586d4dc93169b8ece4c8af26a7ff84244206c1094669c3660001b611fc2565b6103ea7f1b64f665be43664e2c2fbc947401ad997dd6ee79b80e0b5f5028c3d4b699921960001b611fc2565b6104167f7dc365142b4545099621f15f01057f9c9c00d64a63004b03b01659dd12d2dfa060001b611fc2565b6104427f8dbfbc62c80926cf11eeacd54b882cf1c6ce7461711ea420d067eb77ecc7b76160001b611fc2565b6001805490508310610489576040517f08c379a0000000000000000000000000000000000000000000000000000000008152600401610480906128a9565b60405180910390fd5b6104b57fed4dadddc6701707568ade2b1e5029bb4ca0954ea4d3af18772f85cfe7366a3a60001b611fc2565b6104e17f7c6a56ee239f3d6f5085f756eb2d38a4007506f146c184676043dfd30e809ca060001b611fc2565b61050d7fd8c23a5158cfbd0a1c1a72fe743ff151e45d034b56bf6aa21b4849f4145f350960001b611fc2565b6105397f0ad92c49da74db7914c4c627837dbda641136384a04761df2c5b13caa4bbfa1260001b611fc2565b600015156105478433611fc5565b151514610589576040517f08c379a000000000000000000000000000000000000000000000000000000000815260040161058090612915565b60405180910390fd5b6105b57f978e978ea77a61d0a31d684892f5d11ae9aeaa1e1a04146c99e74f702ce5e6b060001b611fc2565b6105e17fbc0aa16d3fb35597d0db28ededd8dccd3dfe38e93d518a5c58c97005521464d860001b611fc2565b61060d7fb1c11c7b289f314cf9f57ee04793797e3ec611ddf87c32d0d0f4e6f541a3e16460001b611fc2565b6106397fdc12a5d8151d810810d9074776a14f32d696b1a9e53ec8d36d2ca7378825115460001b611fc2565b600015156001848154811061065157610650612935565b5b906000526020600020906008020160040160009054906101000a900460ff161515146106b2576040517f08c379a00000000000000000000000000000000000000000000000000000000081526004016106a9906129b0565b60405180910390fd5b6106de7fe7513130b0fc9b5ef0b63ecf894cf19b548e3cd03b4e091400e3bc7a1061466860001b611fc2565b61070a7f37802cfe33e8d4f6d185289628dc47546ea5a255279bc35aa5f5748f8a15567160001b611fc2565b6107367f67e31cbffcceb12d018bdbdace55576c107a753a1b5aaf9451b7e0d876f2402660001b611fc2565b6107627fe7f55fd3892f2181c8c06f03e9444fef34a4559f0e2502f8b56e9d64746cc40560001b611fc2565b60011515610770848461226f565b1515146107b2576040517f08c379a00000000000000000000000000000000000000000000000000000000081526004016107a990612a1c565b60405180910390fd5b6107de7ff425057c7b7c17a9c190a71abe8ac3572fe522923be5aca3ce4fe7e44f99290360001b611fc2565b61080a7f0f38c3cf47ccc12feab9a0ad1ab0ef945ff42996390ae38a871366a7797ebc1a60001b611fc2565b6108367fc9aa47d86339a30823edd2a5d192bea4c85f4485e05f02ad1b590a76317dee5f60001b611fc2565b6108627f77d428402339c1657bd3b145990537aa9cc6ce590eadb7506ac421902d0930ee60001b611fc2565b6203f4806001848154811061087a57610879612935565b5b9060005260206000209060080201600501546108969190612a6b565b42106108d7576040517f08c379a00000000000000000000000000000000000000000000000000000000081526004016108ce90612b0d565b60405180910390fd5b6109037f1b6030b627c32d498a19236e424f3dc7796582db694c07652000bf8f215a96e160001b611fc2565b61092f7fd56eaa09886e66012e865757f5fd8ce78b31cf2071710cefe1dde1aed68a635560001b611fc2565b6001838154811061094357610942612935565b5b906000526020600020906008020160020160006001858154811061096a57610969612935565b5b906000526020600020906008020160010160008573ffffffffffffffffffffffffffffffffffffffff1673ffffffffffffffffffffffffffffffffffffffff16815260200190815260200160002054815260200190815260200160002060008154809291906109d890612b2d565b9190505550610a097ff82b6aa955425eff2f7211757f1fc6239f23e64607a60e2a32378714df43810960001b611fc2565b610a357f38129ea06999ea435e34a6a9157c73ed3d4d35cca3a4f743c69f503f8016577460001b611fc2565b60018381548110610a4957610a48612935565b5b9060005260206000209060080201600301339080600181540180825580915050600190039060005260206000200160009091909190916101000a81548173ffffffffffffffffffffffffffffffffffffffff021916908373ffffffffffffffffffffffffffffffffffffffff160217905550610ae77f6fd074e57ca29cddf928d8ac52164e16ae444da28c2d1d7e8d1be943fb75e51960001b611fc2565b610b137f17a4be80224b1bdf65b698b06ea0b7166e917b9e87f36eda1547647c9c61da6360001b611fc2565b60018381548110610b2757610b26612935565b5b90600052602060002090600802016006015460018481548110610b4d57610b4c612935565b5b9060005260206000209060080201600201600060018681548110610b7457610b73612935565b5b906000526020600020906008020160010160008673ffffffffffffffffffffffffffffffffffffffff1673ffffffffffffffffffffffffffffffffffffffff168152602001908152602001600020548152602001908152602001600020541115610ddf57610c047fa3e5347112a9069c0d5aa529f22725541302b0325c14d1f697a1725adc2aec4460001b611fc2565b610c307f5926943eec3a62a73006f5e82eab212492e5bf91404bac8b2c520b1cbd92967660001b611fc2565b610c5c7f191a2d41fdf30f31d84ea50baf7f915dc8a838cdeba9c7c7daa26ea6c6f02c5f60001b611fc2565b60018381548110610c7057610c6f612935565b5b9060005260206000209060080201600201600060018581548110610c9757610c96612935565b5b906000526020600020906008020160010160008573ffffffffffffffffffffffffffffffffffffffff1673ffffffffffffffffffffffffffffffffffffffff1681526020019081526020016000205481526020019081526020016000205460018481548110610d0957610d08612935565b5b906000526020600020906008020160060181905550610d4a7f4aea73b054df25e55c7fdf7f13bcfb992a13180d8b5f761a6303fec0eb472b1360001b611fc2565b610d767f23ca3fb8463fec4568cfdbb31de036d5675289c7aa54af2bb3ce7d060473f6ec60001b611fc2565b8160018481548110610d8b57610d8a612935565b5b906000526020600020906008020160070160006101000a81548173ffffffffffffffffffffffffffffffffffffffff021916908373ffffffffffffffffffffffffffffffffffffffff160217905550610e0c565b610e0b7ff866f8f81666d2f207ce2c5c2ef143ee52647bb08ec03f927d49b76ae2f5833b60001b611fc2565b5b610e387f45050c97101992eb79d75f7dc3f4f6de276271d0832d8ecde810695e5dc8936860001b611fc2565b610e647f049aaa49ddc996006edf25c20ad9c2e5d14261f47742bf4f10f73bf84706debb60001b611fc2565b6001905092915050565b6060600080610e9f7f7e9d70a35d598107e60562332de8d7f44747500543cb315d37d397c75edfe4a460001b611fc2565b610ecb7f4ed810f474d73158ff681d7f805d456dd5f87025b1d66545485b6e48f4965a8d60001b611fc2565b610ef77ffd8ae19baa90e8e3c03e8114df550128656fbdb595e10837eed77ca359aa60c560001b611fc2565b600060018581548110610f0d57610f0c612935565b5b90600052602060002090600802016000018054905067ffffffffffffffff811115610f3b57610f3a612b75565b5b604051908082528060200260200182016040528015610f695781602001602082028036833780820191505090505b509050610f987ffb7be57863b1006e5f1e59b49cf8ee6be5c56b914447d9b9259456c75f07f71660001b611fc2565b610fc47f3fa9c8cfc6d80075a073b52ab943fd1c6ecebf200c223dc6c7a3ddcbc931eabf60001b611fc2565b60005b60018681548110610fdb57610fda612935565b5b906000526020600020906008020160000180549050811015611111576110237f947e57b48ef96ba7a834cd5eea2627a8c9812631e99d12472502dd195676fc5960001b611fc2565b61104f7f709f7fcef0959d86a5e1e3f3af34fbd52a39182c018ef3b00480b52f8d5850d660001b611fc2565b6001868154811061106357611062612935565b5b9060005260206000209060080201600001818154811061108657611085612935565b5b9060005260206000200160009054906101000a900473ffffffffffffffffffffffffffffffffffffffff168282815181106110c4576110c3612935565b5b602002602001019073ffffffffffffffffffffffffffffffffffffffff16908173ffffffffffffffffffffffffffffffffffffffff1681525050808061110990612b2d565b915050610fc7565b5061113e7f2ae4111586304b7eafba1e47b8b44644b99e0f266ada4904979a09a3e7a2463860001b611fc2565b61116a7f67693b7a87e0c8820e6d45673ebe8350bdd69edb8dabcce62051756c748b646360001b611fc2565b806001868154811061117f5761117e612935565b5b906000526020600020906008020160040160009054906101000a900460ff16600187815481106111b2576111b1612935565b5b906000526020600020906008020160050154935093509350509193909250565b60606112007f8e62386100aadea9854ea8c386bd22196f8a4bebc3cde7ace1c61c410cd6155260001b611fc2565b61122c7ffde875c60f9f83ac9f972576645741c000d1aa52ad2a1ee4154ec485019bc01860001b611fc2565b6112587f57ff449fe76021fe396af633102106a2cf0dbc72086a763b1bfb2f0f7c26350960001b611fc2565b60006001838154811061126e5761126d612935565b5b90600052602060002090600802016000018054905067ffffffffffffffff81111561129c5761129b612b75565b5b6040519080825280602002602001820160405280156112ca5781602001602082028036833780820191505090505b5090506112f97ffbcaae159450c656639bd63c0797fd72610598d13d1876a934c8b8446080fbba60001b611fc2565b6113257f806ba0b680b399f99ac5fb205aab9c8c648a1b226a93da10f18d36e4e2c2233260001b611fc2565b6001838154811061133957611338612935565b5b90600052602060002090600802016000018054806020026020016040519081016040528092919081815260200182805480156113ca57602002820191906000526020600020905b8160009054906101000a900473ffffffffffffffffffffffffffffffffffffffff1673ffffffffffffffffffffffffffffffffffffffff1681526020019060010190808311611380575b505050505090506113fd7f86aa9d12a6fcaed6fc9611cd7ef60427b8ca542454cec04e89d9de0d5dcc810860001b611fc2565b6114297fd6f296658e5a122c58445f7c2226aabb4f2b2dcb3719ca21c92012f99c347db260001b611fc2565b80915050919050565b61145e7fb1b24391df0d8fcb027bb00c7c2dbd44f6ac097e283f6d73fc79d5866e79fc5460001b611fc2565b61148a7ffedf50a2d25ecb1794a057c846cedeafdba9201f661d7ac7098f4d3a1e3ca90e60001b611fc2565b6114b67f32707a3e000176594fd88a92fdd76bf798173ed343a37dcc618e69c74eb3d6a960001b611fc2565b6114e27f5fb39a487b7bc1bf838b7044958f25d4c4075774d9f385da3ade443c3671650360001b611fc2565b60008054906101000a900473ffffffffffffffffffffffffffffffffffffffff1673ffffffffffffffffffffffffffffffffffffffff163373ffffffffffffffffffffffffffffffffffffffff161461153a57600080fd5b6115667fa67fb991e5367b6c0d5862268b179b5d13d2e166302949aa24500ff08e067f1060001b611fc2565b6115927fa753b4b5a3dc38f481cdc4e6595855c55255b3cea8bdb6ffa4785e44ae23f03160001b611fc2565b6115be7f30f198994381e20784484ab248cbbd89765b153fc30e0ba4fce07c0fd77d121560001b611fc2565b60008054906101000a900473ffffffffffffffffffffffffffffffffffffffff1673ffffffffffffffffffffffffffffffffffffffff166108fc6002549081150290604051600060405180830381858888f19350505050158015611626573d6000803e3d6000fd5b50565b6116557fe9ad628c73f92f1e3b692d589b82e101a4dc712e762eb01adff34c0520c75d1860001b611fc2565b6116817fcc286a67ebe41f7d91683ee9411a580432cd9580fa0da70d5b455bba07dcb37560001b611fc2565b6116ad7f2aa4809d6aff080c64495583c8bac5016044b038b1c1790addfb8f4b1e05698f60001b611fc2565b6116d97fed8a42c55bd26a8876f1966be08a7bbb9b721034645c72053e8caf7faf0b0aa860001b611fc2565b6203f480600182815481106116f1576116f0612935565b5b90600052602060002090600802016005015461170d9190612a6b565b421161171857600080fd5b6117447f5d8df9f0942d3da3950176b239e507542f407bbc95996230be52f7a91d5cf13760001b611fc2565b6117707fe7697fcda79b83195cc976a6ac1cd8071d31b35fffe4e84ee6123aa632e0d3d660001b611fc2565b61179c7f32cdcf627bb443f53856493bd11dcbf322b7b900eaffdba1631314279f5553c060001b611fc2565b60018082815481106117b1576117b0612935565b5b906000526020600020906008020160040160006101000a81548160ff0219169083151502179055506118057f5265d1a60cd31e27b3baefc96f57773271b022db7179cd424266e32e75457eaa60001b611fc2565b6118317f7f7ebb0d3ff824c916adc5052d2032d44123880ba18e5ba07808f3ab6500bc6a60001b611fc2565b6000662386f26fc100006001838154811061184f5761184e612935565b5b90600052602060002090600802016003018054905061186e9190612ba4565b905061189c7fd1f4566814351105db5fe2624e4daedb5c35a76c48ad7ac919dec7d06f5176b560001b611fc2565b6118c87f1eee92159a69f12a897b6795aa8e88504396655fea51d0a45222dc9d5392399460001b611fc2565b600182815481106118dc576118db612935565b5b906000526020600020906008020160070160009054906101000a900473ffffffffffffffffffffffffffffffffffffffff1673ffffffffffffffffffffffffffffffffffffffff166108fc600a6009846119369190612ba4565b6119409190612c2d565b9081150290604051600060405180830381858888f1935050505015801561196b573d6000803e3d6000fd5b506119987f7c4b3d298999cad8b34e502043ce0907d6c029fb05712bb34683b44b6b4cf04260001b611fc2565b6119c47f439051756e8a41b0c452b3b3dd316b343dc66b50a6ac11e976e870029b04d99460001b611fc2565b600a6009826119d39190612ba4565b6119dd9190612c2d565b816119e89190612c5e565b600260008282546119f99190612a6b565b925050819055505050565b611a307fdef27571b7605754b15507d27bce8a3e133cd6f0252c1ee9e6b5481fe5a3c02d60001b611fc2565b611a5c7f6935a96b4ad225b800c68022e8e3fe711187c02fd46177d3b8c75b46c94911ff60001b611fc2565b611a887f8dce1c0afa7ba1aa0749667493a5c7471bb5dcc733534bac708c363287bddcf360001b611fc2565b611ab47f347aa1665e6c8d209174a21e1a6267a5f688aa7d6e0f49d57fad27dfc656fd1860001b611fc2565b60008054906101000a900473ffffffffffffffffffffffffffffffffffffffff1673ffffffffffffffffffffffffffffffffffffffff163373ffffffffffffffffffffffffffffffffffffffff1614611b0c57600080fd5b611b387f024e768aac29a5cef226bf3bfde7b5d4c69ba148e138adc19530403b9d4036b860001b611fc2565b611b647f3444601a7b42b5aa7d22dabbcdfda179884f2381f163647d65684d8f92c4a96360001b611fc2565b611b907f4073b5327859530f4c235eb056376447508a638302597fd591f51734a0ae19ef60001b611fc2565b60006001805490509050611bc67f760aec3ec3dde10257a2febcbe437291ac908c77a57e0e770b56a5c8a118c79660001b611fc2565b611bf27f15067027b35a46147bd4e4774438423f706e78f8da2c1507c6f7fae4b2edf49c60001b611fc2565b6001808160018154018082558091505003906000526020600020905050611c3b7f53ea4313b2198dc6f8727057f585048f55e05923413f5498b531c84fc950afd460001b611fc2565b611c677f0a249081ad83576f7f98047a39bf2d0fc964de1d67ad0b483e09ae060ee8494860001b611fc2565b600060018281548110611c7d57611c7c612935565b5b90600052602060002090600802019050611cb97fb7df51e3d964d2652077397134d455b29bd4e48fdbb21c88c6cca42563b4509660001b611fc2565b611ce57f39d0b4c5350b231aebc2cbd249795f5e067ae1874ae59ee20670cccb7a7e5b0960001b611fc2565b60008160040160006101000a81548160ff021916908315150217905550611d2e7f0d84a19f453fc789370181a10f80a358af2fea84a75349ebabf7b0057552341860001b611fc2565b611d5a7fb41698b56428eddca0352e1c4f7c0ce3f1bb52e557b21894b4aa987509677a4f60001b611fc2565b428160050181905550611d8f7f64bf7b5fe9233c2910564e58138b586e38b6eaf1b177d16c3592bd0a7e7c7e0460001b611fc2565b611dbb7f6e9cdd243978d066110f15022a195acea0fc869ffa30055895fb2ad3b2bc0ebd60001b611fc2565b60005b84849050811015611f9157611df57fa963102966dd9100863b77e0e8a0670726ebf5ceddcbecd5b81d5ba7c8e7940560001b611fc2565b611e217fa5da0f38bc969595896f54fe0a9ff2e05f335537347e15ebbc3231c131f9c9c360001b611fc2565b81600001858583818110611e3857611e37612935565b5b9050602002016020810190611e4d9190612c92565b9080600181540180825580915050600190039060005260206000200160009091909190916101000a81548173ffffffffffffffffffffffffffffffffffffffff021916908373ffffffffffffffffffffffffffffffffffffffff160217905550611ed97fd81fd9fbb683a99300ee091799d471c42f3d99e8589cf41e511f75f000c9820c60001b611fc2565b611f057f9ddc069327de041fc2e7df0069692fccb1de6066f939ad46404eba8c5ef31fbf60001b611fc2565b600181611f129190612a6b565b826001016000878785818110611f2b57611f2a612935565b5b9050602002016020810190611f409190612c92565b73ffffffffffffffffffffffffffffffffffffffff1673ffffffffffffffffffffffffffffffffffffffff168152602001908152602001600020819055508080611f8990612b2d565b915050611dbe565b5050505050565b60008054906101000a900473ffffffffffffffffffffffffffffffffffffffff1681565b60025481565b50565b6000611ff37fb6e74ca024f911926f47cb814278ff3533b4496f1986548cd43b229ee746ed6660001b611fc2565b61201f7f5ae8ba14604013c868f3aeb9c3c8a52124adb8888a4601c11cec542abf41744860001b611fc2565b61204b7fa72201246540394933ba16f55f894d7f5b9ff189ba2836dccad77d288ab14bd760001b611fc2565b60005b6001848154811061206257612061612935565b5b90600052602060002090600802016003018054905081101561220b576120aa7f28c7a1ce1bc7adf0e90f7aa4335048e5113ba5bbd95c8714dc9dc0acdf51f01b60001b611fc2565b6120d67fe6b0e58f05ea7fd6679d297888bb7465eb1349396db4c2955e50f3a5cea5e2f260001b611fc2565b8273ffffffffffffffffffffffffffffffffffffffff166001858154811061210157612100612935565b5b9060005260206000209060080201600301828154811061212457612123612935565b5b9060005260206000200160009054906101000a900473ffffffffffffffffffffffffffffffffffffffff1673ffffffffffffffffffffffffffffffffffffffff16036121cc576121967f48035a5573e8441d61b186bd9b63b3a1f08f904ce92d226a7407207c001b0ef760001b611fc2565b6121c27f0cb6b11ed7a5ea0b8fbdb3e582d76d311e751ea57e51b6cd83b4dc94f898541660001b611fc2565b6001915050612269565b6121f87fcf6a82b73fc79e8a5b2ca68c46b097b19a77eeef62bb0239e2aa2d69b3f21c3b60001b611fc2565b808061220390612b2d565b91505061204e565b506122387f9fb1069f014d6f8e1b921169e45d065fa5eb856eb45745d44f121f1ab8d6689760001b611fc2565b6122647f37b997b572729aeff9e759bccf1e8562be2ad08cd5c4d8a71e7ddf64f29c92d960001b611fc2565b600090505b92915050565b600061229d7faad24890c690a0aec24c75f517c3c214c880d22ed18ce800f844509efe6f236d60001b611fc2565b6122c97ff49e2594ca0540cb1a0d9d66a0a61054163b3380116e10e40b903a285e4e2d2260001b611fc2565b6122f57f8de414536b6c2c08f9438864652d7f73cf5e6a4fdc1a0e34f3f4ff43068536e360001b611fc2565b60006001848154811061230b5761230a612935565b5b906000526020600020906008020160010160008473ffffffffffffffffffffffffffffffffffffffff1673ffffffffffffffffffffffffffffffffffffffff16815260200190815260200160002054146123ec5761238b7f3825eb9e3cf891c452d99943b5646b7019a99081d32ec6ba9abbbb226468d46260001b611fc2565b6123b77f4b1bf8a03420f034554a97ccc9ba1953705a60105e3e995e287738345b721d8860001b611fc2565b6123e37fe4f627dd7b0300bde81f016d6a8ab06a771803a4b3082ea4d0734967f7f060c460001b611fc2565b60019050612475565b6124187f47798309b516a08eef5c0d89e4c306d02e4a46ced4f76093ca66f3fcae0b45c260001b611fc2565b6124447f9692a21e5cea3c1ad82aaed2765d5326c4f4e5f9e17dfe7d5fad0907254f97dd60001b611fc2565b6124707faed88fd0efbdfb7f1ce94b244d4874de71e8d6263f1269e7280b24e11cb3d2ad60001b611fc2565b600090505b92915050565b6000819050919050565b61248e8161247b565b82525050565b60006020820190506124a96000830184612485565b92915050565b600080fd5b600080fd5b6124c28161247b565b81146124cd57600080fd5b50565b6000813590506124df816124b9565b92915050565b600073ffffffffffffffffffffffffffffffffffffffff82169050919050565b6000612510826124e5565b9050919050565b61252081612505565b811461252b57600080fd5b50565b60008135905061253d81612517565b92915050565b6000806040838503121561255a576125596124af565b5b6000612568858286016124d0565b92505060206125798582860161252e565b9150509250929050565b60008115159050919050565b61259881612583565b82525050565b60006020820190506125b3600083018461258f565b92915050565b6000602082840312156125cf576125ce6124af565b5b60006125dd848285016124d0565b91505092915050565b600081519050919050565b600082825260208201905092915050565b6000819050602082019050919050565b61261b81612505565b82525050565b600061262d8383612612565b60208301905092915050565b6000602082019050919050565b6000612651826125e6565b61265b81856125f1565b935061266683612602565b8060005b8381101561269757815161267e8882612621565b975061268983612639565b92505060018101905061266a565b5085935050505092915050565b600060608201905081810360008301526126be8186612646565b90506126cd602083018561258f565b6126da6040830184612485565b949350505050565b600060208201905081810360008301526126fc8184612646565b905092915050565b600080fd5b600080fd5b600080fd5b60008083601f84011261272957612728612704565b5b8235905067ffffffffffffffff81111561274657612745612709565b5b6020830191508360208202830111156127625761276161270e565b5b9250929050565b600080602083850312156127805761277f6124af565b5b600083013567ffffffffffffffff81111561279e5761279d6124b4565b5b6127aa85828601612713565b92509250509250929050565b6127bf81612505565b82525050565b60006020820190506127da60008301846127b6565b92915050565b600082825260208201905092915050565b7f496e636f727265637420616d6f756e74206f6620657468657273000000000000600082015250565b6000612827601a836127e0565b9150612832826127f1565b602082019050919050565b600060208201905081810360008301526128568161281a565b9050919050565b7f506f6c6c206964203e20706f6c6c7320616d6f756e7400000000000000000000600082015250565b60006128936016836127e0565b915061289e8261285d565b602082019050919050565b600060208201905081810360008301526128c281612886565b9050919050565b7f416c726561647920766f74656400000000000000000000000000000000000000600082015250565b60006128ff600d836127e0565b915061290a826128c9565b602082019050919050565b6000602082019050818103600083015261292e816128f2565b9050919050565b7f4e487b7100000000000000000000000000000000000000000000000000000000600052603260045260246000fd5b7f506f6c6c2069732066696e697368656400000000000000000000000000000000600082015250565b600061299a6010836127e0565b91506129a582612964565b602082019050919050565b600060208201905081810360008301526129c98161298d565b9050919050565b7f496e636f72726563742063616e64696461746500000000000000000000000000600082015250565b6000612a066013836127e0565b9150612a11826129d0565b602082019050919050565b60006020820190508181036000830152612a35816129f9565b9050919050565b7f4e487b7100000000000000000000000000000000000000000000000000000000600052601160045260246000fd5b6000612a768261247b565b9150612a818361247b565b9250827fffffffffffffffffffffffffffffffffffffffffffffffffffffffffffffffff03821115612ab657612ab5612a3c565b5b828201905092915050565b7f546f6f206c617465000000000000000000000000000000000000000000000000600082015250565b6000612af76008836127e0565b9150612b0282612ac1565b602082019050919050565b60006020820190508181036000830152612b2681612aea565b9050919050565b6000612b388261247b565b91507fffffffffffffffffffffffffffffffffffffffffffffffffffffffffffffffff8203612b6a57612b69612a3c565b5b600182019050919050565b7f4e487b7100000000000000000000000000000000000000000000000000000000600052604160045260246000fd5b6000612baf8261247b565b9150612bba8361247b565b9250817fffffffffffffffffffffffffffffffffffffffffffffffffffffffffffffffff0483118215151615612bf357612bf2612a3c565b5b828202905092915050565b7f4e487b7100000000000000000000000000000000000000000000000000000000600052601260045260246000fd5b6000612c388261247b565b9150612c438361247b565b925082612c5357612c52612bfe565b5b828204905092915050565b6000612c698261247b565b9150612c748361247b565b925082821015612c8757612c86612a3c565b5b828203905092915050565b600060208284031215612ca857612ca76124af565b5b6000612cb68482850161252e565b9150509291505056fea264697066735822122030388970483dedcea9b47e03d46fd010ccc343bfe8ca9c333e6be0617a40d91d64736f6c634300080d0033",
          "opcodes": "PUSH1 0x80 PUSH1 0x40 MSTORE PUSH1 0x0 PUSH1 0x2 SSTORE CALLVALUE DUP1 ISZERO PUSH3 0x16 JUMPI PUSH1 0x0 DUP1 REVERT JUMPDEST POP PUSH3 0x4B PUSH32 0x4A59351FE9F27D441942D26A7625019561ABAC6C066ADE60C1C6F45A3EB76B80 PUSH1 0x0 SHL PUSH3 0xF9 PUSH1 0x20 SHL PUSH1 0x20 SHR JUMP JUMPDEST PUSH3 0x7F PUSH32 0x52E3B889CD4E55784D82426B754F070AC48DE67D784080F4FE77F1B3E2ACFBEE PUSH1 0x0 SHL PUSH3 0xF9 PUSH1 0x20 SHL PUSH1 0x20 SHR JUMP JUMPDEST PUSH3 0xB3 PUSH32 0xB84836808FE3CE2DFD90F651CEF2C1F60973EC063F9C3E185667C03FA4511C2A PUSH1 0x0 SHL PUSH3 0xF9 PUSH1 0x20 SHL PUSH1 0x20 SHR JUMP JUMPDEST CALLER PUSH1 0x0 DUP1 PUSH2 0x100 EXP DUP2 SLOAD DUP2 PUSH20 0xFFFFFFFFFFFFFFFFFFFFFFFFFFFFFFFFFFFFFFFF MUL NOT AND SWAP1 DUP4 PUSH20 0xFFFFFFFFFFFFFFFFFFFFFFFFFFFFFFFFFFFFFFFF AND MUL OR SWAP1 SSTORE POP PUSH3 0xFC JUMP JUMPDEST POP JUMP JUMPDEST PUSH2 0x2CF5 DUP1 PUSH3 0x10C PUSH1 0x0 CODECOPY PUSH1 0x0 RETURN INVALID PUSH1 0x80 PUSH1 0x40 MSTORE PUSH1 0x4 CALLDATASIZE LT PUSH2 0x85 JUMPI PUSH1 0x0 CALLDATALOAD PUSH1 0xE0 SHR DUP1 PUSH4 0x476343EE GT PUSH2 0x59 JUMPI DUP1 PUSH4 0x476343EE EQ PUSH2 0x161 JUMPI DUP1 PUSH4 0x56597E4F EQ PUSH2 0x16B JUMPI DUP1 PUSH4 0x7A798050 EQ PUSH2 0x187 JUMPI DUP1 PUSH4 0x8DA5CB5B EQ PUSH2 0x1B0 JUMPI DUP1 PUSH4 0x9AF1D35A EQ PUSH2 0x1DB JUMPI PUSH2 0x85 JUMP JUMPDEST DUP1 PUSH3 0x8E2997 EQ PUSH2 0x8A JUMPI DUP1 PUSH4 0x2D947EF EQ PUSH2 0xB5 JUMPI DUP1 PUSH4 0x29B8F44A EQ PUSH2 0xE5 JUMPI DUP1 PUSH4 0x3D0A64E2 EQ PUSH2 0x124 JUMPI JUMPDEST PUSH1 0x0 DUP1 REVERT JUMPDEST CALLVALUE DUP1 ISZERO PUSH2 0x96 JUMPI PUSH1 0x0 DUP1 REVERT JUMPDEST POP PUSH2 0x9F PUSH2 0x206 JUMP JUMPDEST PUSH1 0x40 MLOAD PUSH2 0xAC SWAP2 SWAP1 PUSH2 0x2494 JUMP JUMPDEST PUSH1 0x40 MLOAD DUP1 SWAP2 SUB SWAP1 RETURN JUMPDEST PUSH2 0xCF PUSH1 0x4 DUP1 CALLDATASIZE SUB DUP2 ADD SWAP1 PUSH2 0xCA SWAP2 SWAP1 PUSH2 0x2543 JUMP JUMPDEST PUSH2 0x297 JUMP JUMPDEST PUSH1 0x40 MLOAD PUSH2 0xDC SWAP2 SWAP1 PUSH2 0x259E JUMP JUMPDEST PUSH1 0x40 MLOAD DUP1 SWAP2 SUB SWAP1 RETURN JUMPDEST CALLVALUE DUP1 ISZERO PUSH2 0xF1 JUMPI PUSH1 0x0 DUP1 REVERT JUMPDEST POP PUSH2 0x10C PUSH1 0x4 DUP1 CALLDATASIZE SUB DUP2 ADD SWAP1 PUSH2 0x107 SWAP2 SWAP1 PUSH2 0x25B9 JUMP JUMPDEST PUSH2 0xE6E JUMP JUMPDEST PUSH1 0x40 MLOAD PUSH2 0x11B SWAP4 SWAP3 SWAP2 SWAP1 PUSH2 0x26A4 JUMP JUMPDEST PUSH1 0x40 MLOAD DUP1 SWAP2 SUB SWAP1 RETURN JUMPDEST CALLVALUE DUP1 ISZERO PUSH2 0x130 JUMPI PUSH1 0x0 DUP1 REVERT JUMPDEST POP PUSH2 0x14B PUSH1 0x4 DUP1 CALLDATASIZE SUB DUP2 ADD SWAP1 PUSH2 0x146 SWAP2 SWAP1 PUSH2 0x25B9 JUMP JUMPDEST PUSH2 0x11D2 JUMP JUMPDEST PUSH1 0x40 MLOAD PUSH2 0x158 SWAP2 SWAP1 PUSH2 0x26E2 JUMP JUMPDEST PUSH1 0x40 MLOAD DUP1 SWAP2 SUB SWAP1 RETURN JUMPDEST PUSH2 0x169 PUSH2 0x1432 JUMP JUMPDEST STOP JUMPDEST PUSH2 0x185 PUSH1 0x4 DUP1 CALLDATASIZE SUB DUP2 ADD SWAP1 PUSH2 0x180 SWAP2 SWAP1 PUSH2 0x25B9 JUMP JUMPDEST PUSH2 0x1629 JUMP JUMPDEST STOP JUMPDEST CALLVALUE DUP1 ISZERO PUSH2 0x193 JUMPI PUSH1 0x0 DUP1 REVERT JUMPDEST POP PUSH2 0x1AE PUSH1 0x4 DUP1 CALLDATASIZE SUB DUP2 ADD SWAP1 PUSH2 0x1A9 SWAP2 SWAP1 PUSH2 0x2769 JUMP JUMPDEST PUSH2 0x1A04 JUMP JUMPDEST STOP JUMPDEST CALLVALUE DUP1 ISZERO PUSH2 0x1BC JUMPI PUSH1 0x0 DUP1 REVERT JUMPDEST POP PUSH2 0x1C5 PUSH2 0x1F98 JUMP JUMPDEST PUSH1 0x40 MLOAD PUSH2 0x1D2 SWAP2 SWAP1 PUSH2 0x27C5 JUMP JUMPDEST PUSH1 0x40 MLOAD DUP1 SWAP2 SUB SWAP1 RETURN JUMPDEST CALLVALUE DUP1 ISZERO PUSH2 0x1E7 JUMPI PUSH1 0x0 DUP1 REVERT JUMPDEST POP PUSH2 0x1F0 PUSH2 0x1FBC JUMP JUMPDEST PUSH1 0x40 MLOAD PUSH2 0x1FD SWAP2 SWAP1 PUSH2 0x2494 JUMP JUMPDEST PUSH1 0x40 MLOAD DUP1 SWAP2 SUB SWAP1 RETURN JUMPDEST PUSH1 0x0 PUSH2 0x234 PUSH32 0x2E9A73B1472C05FBE22AC1537406132AA10F5C07359DACFF52AAAD5463CBB16F PUSH1 0x0 SHL PUSH2 0x1FC2 JUMP JUMPDEST PUSH2 0x260 PUSH32 0xC720E1B47E8378EFE0F0C7E07FF8FD5468491BB250343AF9A3836DF5C0729A92 PUSH1 0x0 SHL PUSH2 0x1FC2 JUMP JUMPDEST PUSH2 0x28C PUSH32 0x26DCB315EACCEF1726EBD2E346EB017BD7A342CD3F5159DB7E3C4E844048C826 PUSH1 0x0 SHL PUSH2 0x1FC2 JUMP JUMPDEST PUSH1 0x1 DUP1 SLOAD SWAP1 POP SWAP1 POP SWAP1 JUMP JUMPDEST PUSH1 0x0 PUSH2 0x2C5 PUSH32 0xC7AE7DE24529FCF6A8B6832B34BEBA9BF44527C2182B5D8A6FD2886EDB611E17 PUSH1 0x0 SHL PUSH2 0x1FC2 JUMP JUMPDEST PUSH2 0x2F1 PUSH32 0x8138F04EEDCD49F57BB6396BC5A0BD0E74FB1E6238DDB60432BA530B2C5834D4 PUSH1 0x0 SHL PUSH2 0x1FC2 JUMP JUMPDEST PUSH2 0x31D PUSH32 0x7154CE2EC3F664368098BA1936DE1F863B96CDC7FC90C396C54E746A20D5B238 PUSH1 0x0 SHL PUSH2 0x1FC2 JUMP JUMPDEST PUSH2 0x349 PUSH32 0x5DD161E39408F774BB9C6A369937CDF00CB8B97B62649CB83A053242BF76C521 PUSH1 0x0 SHL PUSH2 0x1FC2 JUMP JUMPDEST PUSH7 0x2386F26FC10000 CALLVALUE EQ PUSH2 0x392 JUMPI PUSH1 0x40 MLOAD PUSH32 0x8C379A000000000000000000000000000000000000000000000000000000000 DUP2 MSTORE PUSH1 0x4 ADD PUSH2 0x389 SWAP1 PUSH2 0x283D JUMP JUMPDEST PUSH1 0x40 MLOAD DUP1 SWAP2 SUB SWAP1 REVERT JUMPDEST PUSH2 0x3BE PUSH32 0xBF51EEE7ED818B872586D4DC93169B8ECE4C8AF26A7FF84244206C1094669C36 PUSH1 0x0 SHL PUSH2 0x1FC2 JUMP JUMPDEST PUSH2 0x3EA PUSH32 0x1B64F665BE43664E2C2FBC947401AD997DD6EE79B80E0B5F5028C3D4B6999219 PUSH1 0x0 SHL PUSH2 0x1FC2 JUMP JUMPDEST PUSH2 0x416 PUSH32 0x7DC365142B4545099621F15F01057F9C9C00D64A63004B03B01659DD12D2DFA0 PUSH1 0x0 SHL PUSH2 0x1FC2 JUMP JUMPDEST PUSH2 0x442 PUSH32 0x8DBFBC62C80926CF11EEACD54B882CF1C6CE7461711EA420D067EB77ECC7B761 PUSH1 0x0 SHL PUSH2 0x1FC2 JUMP JUMPDEST PUSH1 0x1 DUP1 SLOAD SWAP1 POP DUP4 LT PUSH2 0x489 JUMPI PUSH1 0x40 MLOAD PUSH32 0x8C379A000000000000000000000000000000000000000000000000000000000 DUP2 MSTORE PUSH1 0x4 ADD PUSH2 0x480 SWAP1 PUSH2 0x28A9 JUMP JUMPDEST PUSH1 0x40 MLOAD DUP1 SWAP2 SUB SWAP1 REVERT JUMPDEST PUSH2 0x4B5 PUSH32 0xED4DADDDC6701707568ADE2B1E5029BB4CA0954EA4D3AF18772F85CFE7366A3A PUSH1 0x0 SHL PUSH2 0x1FC2 JUMP JUMPDEST PUSH2 0x4E1 PUSH32 0x7C6A56EE239F3D6F5085F756EB2D38A4007506F146C184676043DFD30E809CA0 PUSH1 0x0 SHL PUSH2 0x1FC2 JUMP JUMPDEST PUSH2 0x50D PUSH32 0xD8C23A5158CFBD0A1C1A72FE743FF151E45D034B56BF6AA21B4849F4145F3509 PUSH1 0x0 SHL PUSH2 0x1FC2 JUMP JUMPDEST PUSH2 0x539 PUSH32 0xAD92C49DA74DB7914C4C627837DBDA641136384A04761DF2C5B13CAA4BBFA12 PUSH1 0x0 SHL PUSH2 0x1FC2 JUMP JUMPDEST PUSH1 0x0 ISZERO ISZERO PUSH2 0x547 DUP5 CALLER PUSH2 0x1FC5 JUMP JUMPDEST ISZERO ISZERO EQ PUSH2 0x589 JUMPI PUSH1 0x40 MLOAD PUSH32 0x8C379A000000000000000000000000000000000000000000000000000000000 DUP2 MSTORE PUSH1 0x4 ADD PUSH2 0x580 SWAP1 PUSH2 0x2915 JUMP JUMPDEST PUSH1 0x40 MLOAD DUP1 SWAP2 SUB SWAP1 REVERT JUMPDEST PUSH2 0x5B5 PUSH32 0x978E978EA77A61D0A31D684892F5D11AE9AEAA1E1A04146C99E74F702CE5E6B0 PUSH1 0x0 SHL PUSH2 0x1FC2 JUMP JUMPDEST PUSH2 0x5E1 PUSH32 0xBC0AA16D3FB35597D0DB28EDEDD8DCCD3DFE38E93D518A5C58C97005521464D8 PUSH1 0x0 SHL PUSH2 0x1FC2 JUMP JUMPDEST PUSH2 0x60D PUSH32 0xB1C11C7B289F314CF9F57EE04793797E3EC611DDF87C32D0D0F4E6F541A3E164 PUSH1 0x0 SHL PUSH2 0x1FC2 JUMP JUMPDEST PUSH2 0x639 PUSH32 0xDC12A5D8151D810810D9074776A14F32D696B1A9E53EC8D36D2CA73788251154 PUSH1 0x0 SHL PUSH2 0x1FC2 JUMP JUMPDEST PUSH1 0x0 ISZERO ISZERO PUSH1 0x1 DUP5 DUP2 SLOAD DUP2 LT PUSH2 0x651 JUMPI PUSH2 0x650 PUSH2 0x2935 JUMP JUMPDEST JUMPDEST SWAP1 PUSH1 0x0 MSTORE PUSH1 0x20 PUSH1 0x0 KECCAK256 SWAP1 PUSH1 0x8 MUL ADD PUSH1 0x4 ADD PUSH1 0x0 SWAP1 SLOAD SWAP1 PUSH2 0x100 EXP SWAP1 DIV PUSH1 0xFF AND ISZERO ISZERO EQ PUSH2 0x6B2 JUMPI PUSH1 0x40 MLOAD PUSH32 0x8C379A000000000000000000000000000000000000000000000000000000000 DUP2 MSTORE PUSH1 0x4 ADD PUSH2 0x6A9 SWAP1 PUSH2 0x29B0 JUMP JUMPDEST PUSH1 0x40 MLOAD DUP1 SWAP2 SUB SWAP1 REVERT JUMPDEST PUSH2 0x6DE PUSH32 0xE7513130B0FC9B5EF0B63ECF894CF19B548E3CD03B4E091400E3BC7A10614668 PUSH1 0x0 SHL PUSH2 0x1FC2 JUMP JUMPDEST PUSH2 0x70A PUSH32 0x37802CFE33E8D4F6D185289628DC47546EA5A255279BC35AA5F5748F8A155671 PUSH1 0x0 SHL PUSH2 0x1FC2 JUMP JUMPDEST PUSH2 0x736 PUSH32 0x67E31CBFFCCEB12D018BDBDACE55576C107A753A1B5AAF9451B7E0D876F24026 PUSH1 0x0 SHL PUSH2 0x1FC2 JUMP JUMPDEST PUSH2 0x762 PUSH32 0xE7F55FD3892F2181C8C06F03E9444FEF34A4559F0E2502F8B56E9D64746CC405 PUSH1 0x0 SHL PUSH2 0x1FC2 JUMP JUMPDEST PUSH1 0x1 ISZERO ISZERO PUSH2 0x770 DUP5 DUP5 PUSH2 0x226F JUMP JUMPDEST ISZERO ISZERO EQ PUSH2 0x7B2 JUMPI PUSH1 0x40 MLOAD PUSH32 0x8C379A000000000000000000000000000000000000000000000000000000000 DUP2 MSTORE PUSH1 0x4 ADD PUSH2 0x7A9 SWAP1 PUSH2 0x2A1C JUMP JUMPDEST PUSH1 0x40 MLOAD DUP1 SWAP2 SUB SWAP1 REVERT JUMPDEST PUSH2 0x7DE PUSH32 0xF425057C7B7C17A9C190A71ABE8AC3572FE522923BE5ACA3CE4FE7E44F992903 PUSH1 0x0 SHL PUSH2 0x1FC2 JUMP JUMPDEST PUSH2 0x80A PUSH32 0xF38C3CF47CCC12FEAB9A0AD1AB0EF945FF42996390AE38A871366A7797EBC1A PUSH1 0x0 SHL PUSH2 0x1FC2 JUMP JUMPDEST PUSH2 0x836 PUSH32 0xC9AA47D86339A30823EDD2A5D192BEA4C85F4485E05F02AD1B590A76317DEE5F PUSH1 0x0 SHL PUSH2 0x1FC2 JUMP JUMPDEST PUSH2 0x862 PUSH32 0x77D428402339C1657BD3B145990537AA9CC6CE590EADB7506AC421902D0930EE PUSH1 0x0 SHL PUSH2 0x1FC2 JUMP JUMPDEST PUSH3 0x3F480 PUSH1 0x1 DUP5 DUP2 SLOAD DUP2 LT PUSH2 0x87A JUMPI PUSH2 0x879 PUSH2 0x2935 JUMP JUMPDEST JUMPDEST SWAP1 PUSH1 0x0 MSTORE PUSH1 0x20 PUSH1 0x0 KECCAK256 SWAP1 PUSH1 0x8 MUL ADD PUSH1 0x5 ADD SLOAD PUSH2 0x896 SWAP2 SWAP1 PUSH2 0x2A6B JUMP JUMPDEST TIMESTAMP LT PUSH2 0x8D7 JUMPI PUSH1 0x40 MLOAD PUSH32 0x8C379A000000000000000000000000000000000000000000000000000000000 DUP2 MSTORE PUSH1 0x4 ADD PUSH2 0x8CE SWAP1 PUSH2 0x2B0D JUMP JUMPDEST PUSH1 0x40 MLOAD DUP1 SWAP2 SUB SWAP1 REVERT JUMPDEST PUSH2 0x903 PUSH32 0x1B6030B627C32D498A19236E424F3DC7796582DB694C07652000BF8F215A96E1 PUSH1 0x0 SHL PUSH2 0x1FC2 JUMP JUMPDEST PUSH2 0x92F PUSH32 0xD56EAA09886E66012E865757F5FD8CE78B31CF2071710CEFE1DDE1AED68A6355 PUSH1 0x0 SHL PUSH2 0x1FC2 JUMP JUMPDEST PUSH1 0x1 DUP4 DUP2 SLOAD DUP2 LT PUSH2 0x943 JUMPI PUSH2 0x942 PUSH2 0x2935 JUMP JUMPDEST JUMPDEST SWAP1 PUSH1 0x0 MSTORE PUSH1 0x20 PUSH1 0x0 KECCAK256 SWAP1 PUSH1 0x8 MUL ADD PUSH1 0x2 ADD PUSH1 0x0 PUSH1 0x1 DUP6 DUP2 SLOAD DUP2 LT PUSH2 0x96A JUMPI PUSH2 0x969 PUSH2 0x2935 JUMP JUMPDEST JUMPDEST SWAP1 PUSH1 0x0 MSTORE PUSH1 0x20 PUSH1 0x0 KECCAK256 SWAP1 PUSH1 0x8 MUL ADD PUSH1 0x1 ADD PUSH1 0x0 DUP6 PUSH20 0xFFFFFFFFFFFFFFFFFFFFFFFFFFFFFFFFFFFFFFFF AND PUSH20 0xFFFFFFFFFFFFFFFFFFFFFFFFFFFFFFFFFFFFFFFF AND DUP2 MSTORE PUSH1 0x20 ADD SWAP1 DUP2 MSTORE PUSH1 0x20 ADD PUSH1 0x0 KECCAK256 SLOAD DUP2 MSTORE PUSH1 0x20 ADD SWAP1 DUP2 MSTORE PUSH1 0x20 ADD PUSH1 0x0 KECCAK256 PUSH1 0x0 DUP2 SLOAD DUP1 SWAP3 SWAP2 SWAP1 PUSH2 0x9D8 SWAP1 PUSH2 0x2B2D JUMP JUMPDEST SWAP2 SWAP1 POP SSTORE POP PUSH2 0xA09 PUSH32 0xF82B6AA955425EFF2F7211757F1FC6239F23E64607A60E2A32378714DF438109 PUSH1 0x0 SHL PUSH2 0x1FC2 JUMP JUMPDEST PUSH2 0xA35 PUSH32 0x38129EA06999EA435E34A6A9157C73ED3D4D35CCA3A4F743C69F503F80165774 PUSH1 0x0 SHL PUSH2 0x1FC2 JUMP JUMPDEST PUSH1 0x1 DUP4 DUP2 SLOAD DUP2 LT PUSH2 0xA49 JUMPI PUSH2 0xA48 PUSH2 0x2935 JUMP JUMPDEST JUMPDEST SWAP1 PUSH1 0x0 MSTORE PUSH1 0x20 PUSH1 0x0 KECCAK256 SWAP1 PUSH1 0x8 MUL ADD PUSH1 0x3 ADD CALLER SWAP1 DUP1 PUSH1 0x1 DUP2 SLOAD ADD DUP1 DUP3 SSTORE DUP1 SWAP2 POP POP PUSH1 0x1 SWAP1 SUB SWAP1 PUSH1 0x0 MSTORE PUSH1 0x20 PUSH1 0x0 KECCAK256 ADD PUSH1 0x0 SWAP1 SWAP2 SWAP1 SWAP2 SWAP1 SWAP2 PUSH2 0x100 EXP DUP2 SLOAD DUP2 PUSH20 0xFFFFFFFFFFFFFFFFFFFFFFFFFFFFFFFFFFFFFFFF MUL NOT AND SWAP1 DUP4 PUSH20 0xFFFFFFFFFFFFFFFFFFFFFFFFFFFFFFFFFFFFFFFF AND MUL OR SWAP1 SSTORE POP PUSH2 0xAE7 PUSH32 0x6FD074E57CA29CDDF928D8AC52164E16AE444DA28C2D1D7E8D1BE943FB75E519 PUSH1 0x0 SHL PUSH2 0x1FC2 JUMP JUMPDEST PUSH2 0xB13 PUSH32 0x17A4BE80224B1BDF65B698B06EA0B7166E917B9E87F36EDA1547647C9C61DA63 PUSH1 0x0 SHL PUSH2 0x1FC2 JUMP JUMPDEST PUSH1 0x1 DUP4 DUP2 SLOAD DUP2 LT PUSH2 0xB27 JUMPI PUSH2 0xB26 PUSH2 0x2935 JUMP JUMPDEST JUMPDEST SWAP1 PUSH1 0x0 MSTORE PUSH1 0x20 PUSH1 0x0 KECCAK256 SWAP1 PUSH1 0x8 MUL ADD PUSH1 0x6 ADD SLOAD PUSH1 0x1 DUP5 DUP2 SLOAD DUP2 LT PUSH2 0xB4D JUMPI PUSH2 0xB4C PUSH2 0x2935 JUMP JUMPDEST JUMPDEST SWAP1 PUSH1 0x0 MSTORE PUSH1 0x20 PUSH1 0x0 KECCAK256 SWAP1 PUSH1 0x8 MUL ADD PUSH1 0x2 ADD PUSH1 0x0 PUSH1 0x1 DUP7 DUP2 SLOAD DUP2 LT PUSH2 0xB74 JUMPI PUSH2 0xB73 PUSH2 0x2935 JUMP JUMPDEST JUMPDEST SWAP1 PUSH1 0x0 MSTORE PUSH1 0x20 PUSH1 0x0 KECCAK256 SWAP1 PUSH1 0x8 MUL ADD PUSH1 0x1 ADD PUSH1 0x0 DUP7 PUSH20 0xFFFFFFFFFFFFFFFFFFFFFFFFFFFFFFFFFFFFFFFF AND PUSH20 0xFFFFFFFFFFFFFFFFFFFFFFFFFFFFFFFFFFFFFFFF AND DUP2 MSTORE PUSH1 0x20 ADD SWAP1 DUP2 MSTORE PUSH1 0x20 ADD PUSH1 0x0 KECCAK256 SLOAD DUP2 MSTORE PUSH1 0x20 ADD SWAP1 DUP2 MSTORE PUSH1 0x20 ADD PUSH1 0x0 KECCAK256 SLOAD GT ISZERO PUSH2 0xDDF JUMPI PUSH2 0xC04 PUSH32 0xA3E5347112A9069C0D5AA529F22725541302B0325C14D1F697A1725ADC2AEC44 PUSH1 0x0 SHL PUSH2 0x1FC2 JUMP JUMPDEST PUSH2 0xC30 PUSH32 0x5926943EEC3A62A73006F5E82EAB212492E5BF91404BAC8B2C520B1CBD929676 PUSH1 0x0 SHL PUSH2 0x1FC2 JUMP JUMPDEST PUSH2 0xC5C PUSH32 0x191A2D41FDF30F31D84EA50BAF7F915DC8A838CDEBA9C7C7DAA26EA6C6F02C5F PUSH1 0x0 SHL PUSH2 0x1FC2 JUMP JUMPDEST PUSH1 0x1 DUP4 DUP2 SLOAD DUP2 LT PUSH2 0xC70 JUMPI PUSH2 0xC6F PUSH2 0x2935 JUMP JUMPDEST JUMPDEST SWAP1 PUSH1 0x0 MSTORE PUSH1 0x20 PUSH1 0x0 KECCAK256 SWAP1 PUSH1 0x8 MUL ADD PUSH1 0x2 ADD PUSH1 0x0 PUSH1 0x1 DUP6 DUP2 SLOAD DUP2 LT PUSH2 0xC97 JUMPI PUSH2 0xC96 PUSH2 0x2935 JUMP JUMPDEST JUMPDEST SWAP1 PUSH1 0x0 MSTORE PUSH1 0x20 PUSH1 0x0 KECCAK256 SWAP1 PUSH1 0x8 MUL ADD PUSH1 0x1 ADD PUSH1 0x0 DUP6 PUSH20 0xFFFFFFFFFFFFFFFFFFFFFFFFFFFFFFFFFFFFFFFF AND PUSH20 0xFFFFFFFFFFFFFFFFFFFFFFFFFFFFFFFFFFFFFFFF AND DUP2 MSTORE PUSH1 0x20 ADD SWAP1 DUP2 MSTORE PUSH1 0x20 ADD PUSH1 0x0 KECCAK256 SLOAD DUP2 MSTORE PUSH1 0x20 ADD SWAP1 DUP2 MSTORE PUSH1 0x20 ADD PUSH1 0x0 KECCAK256 SLOAD PUSH1 0x1 DUP5 DUP2 SLOAD DUP2 LT PUSH2 0xD09 JUMPI PUSH2 0xD08 PUSH2 0x2935 JUMP JUMPDEST JUMPDEST SWAP1 PUSH1 0x0 MSTORE PUSH1 0x20 PUSH1 0x0 KECCAK256 SWAP1 PUSH1 0x8 MUL ADD PUSH1 0x6 ADD DUP2 SWAP1 SSTORE POP PUSH2 0xD4A PUSH32 0x4AEA73B054DF25E55C7FDF7F13BCFB992A13180D8B5F761A6303FEC0EB472B13 PUSH1 0x0 SHL PUSH2 0x1FC2 JUMP JUMPDEST PUSH2 0xD76 PUSH32 0x23CA3FB8463FEC4568CFDBB31DE036D5675289C7AA54AF2BB3CE7D060473F6EC PUSH1 0x0 SHL PUSH2 0x1FC2 JUMP JUMPDEST DUP2 PUSH1 0x1 DUP5 DUP2 SLOAD DUP2 LT PUSH2 0xD8B JUMPI PUSH2 0xD8A PUSH2 0x2935 JUMP JUMPDEST JUMPDEST SWAP1 PUSH1 0x0 MSTORE PUSH1 0x20 PUSH1 0x0 KECCAK256 SWAP1 PUSH1 0x8 MUL ADD PUSH1 0x7 ADD PUSH1 0x0 PUSH2 0x100 EXP DUP2 SLOAD DUP2 PUSH20 0xFFFFFFFFFFFFFFFFFFFFFFFFFFFFFFFFFFFFFFFF MUL NOT AND SWAP1 DUP4 PUSH20 0xFFFFFFFFFFFFFFFFFFFFFFFFFFFFFFFFFFFFFFFF AND MUL OR SWAP1 SSTORE POP PUSH2 0xE0C JUMP JUMPDEST PUSH2 0xE0B PUSH32 0xF866F8F81666D2F207CE2C5C2EF143EE52647BB08EC03F927D49B76AE2F5833B PUSH1 0x0 SHL PUSH2 0x1FC2 JUMP JUMPDEST JUMPDEST PUSH2 0xE38 PUSH32 0x45050C97101992EB79D75F7DC3F4F6DE276271D0832D8ECDE810695E5DC89368 PUSH1 0x0 SHL PUSH2 0x1FC2 JUMP JUMPDEST PUSH2 0xE64 PUSH32 0x49AAA49DDC996006EDF25C20AD9C2E5D14261F47742BF4F10F73BF84706DEBB PUSH1 0x0 SHL PUSH2 0x1FC2 JUMP JUMPDEST PUSH1 0x1 SWAP1 POP SWAP3 SWAP2 POP POP JUMP JUMPDEST PUSH1 0x60 PUSH1 0x0 DUP1 PUSH2 0xE9F PUSH32 0x7E9D70A35D598107E60562332DE8D7F44747500543CB315D37D397C75EDFE4A4 PUSH1 0x0 SHL PUSH2 0x1FC2 JUMP JUMPDEST PUSH2 0xECB PUSH32 0x4ED810F474D73158FF681D7F805D456DD5F87025B1D66545485B6E48F4965A8D PUSH1 0x0 SHL PUSH2 0x1FC2 JUMP JUMPDEST PUSH2 0xEF7 PUSH32 0xFD8AE19BAA90E8E3C03E8114DF550128656FBDB595E10837EED77CA359AA60C5 PUSH1 0x0 SHL PUSH2 0x1FC2 JUMP JUMPDEST PUSH1 0x0 PUSH1 0x1 DUP6 DUP2 SLOAD DUP2 LT PUSH2 0xF0D JUMPI PUSH2 0xF0C PUSH2 0x2935 JUMP JUMPDEST JUMPDEST SWAP1 PUSH1 0x0 MSTORE PUSH1 0x20 PUSH1 0x0 KECCAK256 SWAP1 PUSH1 0x8 MUL ADD PUSH1 0x0 ADD DUP1 SLOAD SWAP1 POP PUSH8 0xFFFFFFFFFFFFFFFF DUP2 GT ISZERO PUSH2 0xF3B JUMPI PUSH2 0xF3A PUSH2 0x2B75 JUMP JUMPDEST JUMPDEST PUSH1 0x40 MLOAD SWAP1 DUP1 DUP3 MSTORE DUP1 PUSH1 0x20 MUL PUSH1 0x20 ADD DUP3 ADD PUSH1 0x40 MSTORE DUP1 ISZERO PUSH2 0xF69 JUMPI DUP2 PUSH1 0x20 ADD PUSH1 0x20 DUP3 MUL DUP1 CALLDATASIZE DUP4 CALLDATACOPY DUP1 DUP3 ADD SWAP2 POP POP SWAP1 POP JUMPDEST POP SWAP1 POP PUSH2 0xF98 PUSH32 0xFB7BE57863B1006E5F1E59B49CF8EE6BE5C56B914447D9B9259456C75F07F716 PUSH1 0x0 SHL PUSH2 0x1FC2 JUMP JUMPDEST PUSH2 0xFC4 PUSH32 0x3FA9C8CFC6D80075A073B52AB943FD1C6ECEBF200C223DC6C7A3DDCBC931EABF PUSH1 0x0 SHL PUSH2 0x1FC2 JUMP JUMPDEST PUSH1 0x0 JUMPDEST PUSH1 0x1 DUP7 DUP2 SLOAD DUP2 LT PUSH2 0xFDB JUMPI PUSH2 0xFDA PUSH2 0x2935 JUMP JUMPDEST JUMPDEST SWAP1 PUSH1 0x0 MSTORE PUSH1 0x20 PUSH1 0x0 KECCAK256 SWAP1 PUSH1 0x8 MUL ADD PUSH1 0x0 ADD DUP1 SLOAD SWAP1 POP DUP2 LT ISZERO PUSH2 0x1111 JUMPI PUSH2 0x1023 PUSH32 0x947E57B48EF96BA7A834CD5EEA2627A8C9812631E99D12472502DD195676FC59 PUSH1 0x0 SHL PUSH2 0x1FC2 JUMP JUMPDEST PUSH2 0x104F PUSH32 0x709F7FCEF0959D86A5E1E3F3AF34FBD52A39182C018EF3B00480B52F8D5850D6 PUSH1 0x0 SHL PUSH2 0x1FC2 JUMP JUMPDEST PUSH1 0x1 DUP7 DUP2 SLOAD DUP2 LT PUSH2 0x1063 JUMPI PUSH2 0x1062 PUSH2 0x2935 JUMP JUMPDEST JUMPDEST SWAP1 PUSH1 0x0 MSTORE PUSH1 0x20 PUSH1 0x0 KECCAK256 SWAP1 PUSH1 0x8 MUL ADD PUSH1 0x0 ADD DUP2 DUP2 SLOAD DUP2 LT PUSH2 0x1086 JUMPI PUSH2 0x1085 PUSH2 0x2935 JUMP JUMPDEST JUMPDEST SWAP1 PUSH1 0x0 MSTORE PUSH1 0x20 PUSH1 0x0 KECCAK256 ADD PUSH1 0x0 SWAP1 SLOAD SWAP1 PUSH2 0x100 EXP SWAP1 DIV PUSH20 0xFFFFFFFFFFFFFFFFFFFFFFFFFFFFFFFFFFFFFFFF AND DUP3 DUP3 DUP2 MLOAD DUP2 LT PUSH2 0x10C4 JUMPI PUSH2 0x10C3 PUSH2 0x2935 JUMP JUMPDEST JUMPDEST PUSH1 0x20 MUL PUSH1 0x20 ADD ADD SWAP1 PUSH20 0xFFFFFFFFFFFFFFFFFFFFFFFFFFFFFFFFFFFFFFFF AND SWAP1 DUP2 PUSH20 0xFFFFFFFFFFFFFFFFFFFFFFFFFFFFFFFFFFFFFFFF AND DUP2 MSTORE POP POP DUP1 DUP1 PUSH2 0x1109 SWAP1 PUSH2 0x2B2D JUMP JUMPDEST SWAP2 POP POP PUSH2 0xFC7 JUMP JUMPDEST POP PUSH2 0x113E PUSH32 0x2AE4111586304B7EAFBA1E47B8B44644B99E0F266ADA4904979A09A3E7A24638 PUSH1 0x0 SHL PUSH2 0x1FC2 JUMP JUMPDEST PUSH2 0x116A PUSH32 0x67693B7A87E0C8820E6D45673EBE8350BDD69EDB8DABCCE62051756C748B6463 PUSH1 0x0 SHL PUSH2 0x1FC2 JUMP JUMPDEST DUP1 PUSH1 0x1 DUP7 DUP2 SLOAD DUP2 LT PUSH2 0x117F JUMPI PUSH2 0x117E PUSH2 0x2935 JUMP JUMPDEST JUMPDEST SWAP1 PUSH1 0x0 MSTORE PUSH1 0x20 PUSH1 0x0 KECCAK256 SWAP1 PUSH1 0x8 MUL ADD PUSH1 0x4 ADD PUSH1 0x0 SWAP1 SLOAD SWAP1 PUSH2 0x100 EXP SWAP1 DIV PUSH1 0xFF AND PUSH1 0x1 DUP8 DUP2 SLOAD DUP2 LT PUSH2 0x11B2 JUMPI PUSH2 0x11B1 PUSH2 0x2935 JUMP JUMPDEST JUMPDEST SWAP1 PUSH1 0x0 MSTORE PUSH1 0x20 PUSH1 0x0 KECCAK256 SWAP1 PUSH1 0x8 MUL ADD PUSH1 0x5 ADD SLOAD SWAP4 POP SWAP4 POP SWAP4 POP POP SWAP2 SWAP4 SWAP1 SWAP3 POP JUMP JUMPDEST PUSH1 0x60 PUSH2 0x1200 PUSH32 0x8E62386100AADEA9854EA8C386BD22196F8A4BEBC3CDE7ACE1C61C410CD61552 PUSH1 0x0 SHL PUSH2 0x1FC2 JUMP JUMPDEST PUSH2 0x122C PUSH32 0xFDE875C60F9F83AC9F972576645741C000D1AA52AD2A1EE4154EC485019BC018 PUSH1 0x0 SHL PUSH2 0x1FC2 JUMP JUMPDEST PUSH2 0x1258 PUSH32 0x57FF449FE76021FE396AF633102106A2CF0DBC72086A763B1BFB2F0F7C263509 PUSH1 0x0 SHL PUSH2 0x1FC2 JUMP JUMPDEST PUSH1 0x0 PUSH1 0x1 DUP4 DUP2 SLOAD DUP2 LT PUSH2 0x126E JUMPI PUSH2 0x126D PUSH2 0x2935 JUMP JUMPDEST JUMPDEST SWAP1 PUSH1 0x0 MSTORE PUSH1 0x20 PUSH1 0x0 KECCAK256 SWAP1 PUSH1 0x8 MUL ADD PUSH1 0x0 ADD DUP1 SLOAD SWAP1 POP PUSH8 0xFFFFFFFFFFFFFFFF DUP2 GT ISZERO PUSH2 0x129C JUMPI PUSH2 0x129B PUSH2 0x2B75 JUMP JUMPDEST JUMPDEST PUSH1 0x40 MLOAD SWAP1 DUP1 DUP3 MSTORE DUP1 PUSH1 0x20 MUL PUSH1 0x20 ADD DUP3 ADD PUSH1 0x40 MSTORE DUP1 ISZERO PUSH2 0x12CA JUMPI DUP2 PUSH1 0x20 ADD PUSH1 0x20 DUP3 MUL DUP1 CALLDATASIZE DUP4 CALLDATACOPY DUP1 DUP3 ADD SWAP2 POP POP SWAP1 POP JUMPDEST POP SWAP1 POP PUSH2 0x12F9 PUSH32 0xFBCAAE159450C656639BD63C0797FD72610598D13D1876A934C8B8446080FBBA PUSH1 0x0 SHL PUSH2 0x1FC2 JUMP JUMPDEST PUSH2 0x1325 PUSH32 0x806BA0B680B399F99AC5FB205AAB9C8C648A1B226A93DA10F18D36E4E2C22332 PUSH1 0x0 SHL PUSH2 0x1FC2 JUMP JUMPDEST PUSH1 0x1 DUP4 DUP2 SLOAD DUP2 LT PUSH2 0x1339 JUMPI PUSH2 0x1338 PUSH2 0x2935 JUMP JUMPDEST JUMPDEST SWAP1 PUSH1 0x0 MSTORE PUSH1 0x20 PUSH1 0x0 KECCAK256 SWAP1 PUSH1 0x8 MUL ADD PUSH1 0x0 ADD DUP1 SLOAD DUP1 PUSH1 0x20 MUL PUSH1 0x20 ADD PUSH1 0x40 MLOAD SWAP1 DUP2 ADD PUSH1 0x40 MSTORE DUP1 SWAP3 SWAP2 SWAP1 DUP2 DUP2 MSTORE PUSH1 0x20 ADD DUP3 DUP1 SLOAD DUP1 ISZERO PUSH2 0x13CA JUMPI PUSH1 0x20 MUL DUP3 ADD SWAP2 SWAP1 PUSH1 0x0 MSTORE PUSH1 0x20 PUSH1 0x0 KECCAK256 SWAP1 JUMPDEST DUP2 PUSH1 0x0 SWAP1 SLOAD SWAP1 PUSH2 0x100 EXP SWAP1 DIV PUSH20 0xFFFFFFFFFFFFFFFFFFFFFFFFFFFFFFFFFFFFFFFF AND PUSH20 0xFFFFFFFFFFFFFFFFFFFFFFFFFFFFFFFFFFFFFFFF AND DUP2 MSTORE PUSH1 0x20 ADD SWAP1 PUSH1 0x1 ADD SWAP1 DUP1 DUP4 GT PUSH2 0x1380 JUMPI JUMPDEST POP POP POP POP POP SWAP1 POP PUSH2 0x13FD PUSH32 0x86AA9D12A6FCAED6FC9611CD7EF60427B8CA542454CEC04E89D9DE0D5DCC8108 PUSH1 0x0 SHL PUSH2 0x1FC2 JUMP JUMPDEST PUSH2 0x1429 PUSH32 0xD6F296658E5A122C58445F7C2226AABB4F2B2DCB3719CA21C92012F99C347DB2 PUSH1 0x0 SHL PUSH2 0x1FC2 JUMP JUMPDEST DUP1 SWAP2 POP POP SWAP2 SWAP1 POP JUMP JUMPDEST PUSH2 0x145E PUSH32 0xB1B24391DF0D8FCB027BB00C7C2DBD44F6AC097E283F6D73FC79D5866E79FC54 PUSH1 0x0 SHL PUSH2 0x1FC2 JUMP JUMPDEST PUSH2 0x148A PUSH32 0xFEDF50A2D25ECB1794A057C846CEDEAFDBA9201F661D7AC7098F4D3A1E3CA90E PUSH1 0x0 SHL PUSH2 0x1FC2 JUMP JUMPDEST PUSH2 0x14B6 PUSH32 0x32707A3E000176594FD88A92FDD76BF798173ED343A37DCC618E69C74EB3D6A9 PUSH1 0x0 SHL PUSH2 0x1FC2 JUMP JUMPDEST PUSH2 0x14E2 PUSH32 0x5FB39A487B7BC1BF838B7044958F25D4C4075774D9F385DA3ADE443C36716503 PUSH1 0x0 SHL PUSH2 0x1FC2 JUMP JUMPDEST PUSH1 0x0 DUP1 SLOAD SWAP1 PUSH2 0x100 EXP SWAP1 DIV PUSH20 0xFFFFFFFFFFFFFFFFFFFFFFFFFFFFFFFFFFFFFFFF AND PUSH20 0xFFFFFFFFFFFFFFFFFFFFFFFFFFFFFFFFFFFFFFFF AND CALLER PUSH20 0xFFFFFFFFFFFFFFFFFFFFFFFFFFFFFFFFFFFFFFFF AND EQ PUSH2 0x153A JUMPI PUSH1 0x0 DUP1 REVERT JUMPDEST PUSH2 0x1566 PUSH32 0xA67FB991E5367B6C0D5862268B179B5D13D2E166302949AA24500FF08E067F10 PUSH1 0x0 SHL PUSH2 0x1FC2 JUMP JUMPDEST PUSH2 0x1592 PUSH32 0xA753B4B5A3DC38F481CDC4E6595855C55255B3CEA8BDB6FFA4785E44AE23F031 PUSH1 0x0 SHL PUSH2 0x1FC2 JUMP JUMPDEST PUSH2 0x15BE PUSH32 0x30F198994381E20784484AB248CBBD89765B153FC30E0BA4FCE07C0FD77D1215 PUSH1 0x0 SHL PUSH2 0x1FC2 JUMP JUMPDEST PUSH1 0x0 DUP1 SLOAD SWAP1 PUSH2 0x100 EXP SWAP1 DIV PUSH20 0xFFFFFFFFFFFFFFFFFFFFFFFFFFFFFFFFFFFFFFFF AND PUSH20 0xFFFFFFFFFFFFFFFFFFFFFFFFFFFFFFFFFFFFFFFF AND PUSH2 0x8FC PUSH1 0x2 SLOAD SWAP1 DUP2 ISZERO MUL SWAP1 PUSH1 0x40 MLOAD PUSH1 0x0 PUSH1 0x40 MLOAD DUP1 DUP4 SUB DUP2 DUP6 DUP9 DUP9 CALL SWAP4 POP POP POP POP ISZERO DUP1 ISZERO PUSH2 0x1626 JUMPI RETURNDATASIZE PUSH1 0x0 DUP1 RETURNDATACOPY RETURNDATASIZE PUSH1 0x0 REVERT JUMPDEST POP JUMP JUMPDEST PUSH2 0x1655 PUSH32 0xE9AD628C73F92F1E3B692D589B82E101A4DC712E762EB01ADFF34C0520C75D18 PUSH1 0x0 SHL PUSH2 0x1FC2 JUMP JUMPDEST PUSH2 0x1681 PUSH32 0xCC286A67EBE41F7D91683EE9411A580432CD9580FA0DA70D5B455BBA07DCB375 PUSH1 0x0 SHL PUSH2 0x1FC2 JUMP JUMPDEST PUSH2 0x16AD PUSH32 0x2AA4809D6AFF080C64495583C8BAC5016044B038B1C1790ADDFB8F4B1E05698F PUSH1 0x0 SHL PUSH2 0x1FC2 JUMP JUMPDEST PUSH2 0x16D9 PUSH32 0xED8A42C55BD26A8876F1966BE08A7BBB9B721034645C72053E8CAF7FAF0B0AA8 PUSH1 0x0 SHL PUSH2 0x1FC2 JUMP JUMPDEST PUSH3 0x3F480 PUSH1 0x1 DUP3 DUP2 SLOAD DUP2 LT PUSH2 0x16F1 JUMPI PUSH2 0x16F0 PUSH2 0x2935 JUMP JUMPDEST JUMPDEST SWAP1 PUSH1 0x0 MSTORE PUSH1 0x20 PUSH1 0x0 KECCAK256 SWAP1 PUSH1 0x8 MUL ADD PUSH1 0x5 ADD SLOAD PUSH2 0x170D SWAP2 SWAP1 PUSH2 0x2A6B JUMP JUMPDEST TIMESTAMP GT PUSH2 0x1718 JUMPI PUSH1 0x0 DUP1 REVERT JUMPDEST PUSH2 0x1744 PUSH32 0x5D8DF9F0942D3DA3950176B239E507542F407BBC95996230BE52F7A91D5CF137 PUSH1 0x0 SHL PUSH2 0x1FC2 JUMP JUMPDEST PUSH2 0x1770 PUSH32 0xE7697FCDA79B83195CC976A6AC1CD8071D31B35FFFE4E84EE6123AA632E0D3D6 PUSH1 0x0 SHL PUSH2 0x1FC2 JUMP JUMPDEST PUSH2 0x179C PUSH32 0x32CDCF627BB443F53856493BD11DCBF322B7B900EAFFDBA1631314279F5553C0 PUSH1 0x0 SHL PUSH2 0x1FC2 JUMP JUMPDEST PUSH1 0x1 DUP1 DUP3 DUP2 SLOAD DUP2 LT PUSH2 0x17B1 JUMPI PUSH2 0x17B0 PUSH2 0x2935 JUMP JUMPDEST JUMPDEST SWAP1 PUSH1 0x0 MSTORE PUSH1 0x20 PUSH1 0x0 KECCAK256 SWAP1 PUSH1 0x8 MUL ADD PUSH1 0x4 ADD PUSH1 0x0 PUSH2 0x100 EXP DUP2 SLOAD DUP2 PUSH1 0xFF MUL NOT AND SWAP1 DUP4 ISZERO ISZERO MUL OR SWAP1 SSTORE POP PUSH2 0x1805 PUSH32 0x5265D1A60CD31E27B3BAEFC96F57773271B022DB7179CD424266E32E75457EAA PUSH1 0x0 SHL PUSH2 0x1FC2 JUMP JUMPDEST PUSH2 0x1831 PUSH32 0x7F7EBB0D3FF824C916ADC5052D2032D44123880BA18E5BA07808F3AB6500BC6A PUSH1 0x0 SHL PUSH2 0x1FC2 JUMP JUMPDEST PUSH1 0x0 PUSH7 0x2386F26FC10000 PUSH1 0x1 DUP4 DUP2 SLOAD DUP2 LT PUSH2 0x184F JUMPI PUSH2 0x184E PUSH2 0x2935 JUMP JUMPDEST JUMPDEST SWAP1 PUSH1 0x0 MSTORE PUSH1 0x20 PUSH1 0x0 KECCAK256 SWAP1 PUSH1 0x8 MUL ADD PUSH1 0x3 ADD DUP1 SLOAD SWAP1 POP PUSH2 0x186E SWAP2 SWAP1 PUSH2 0x2BA4 JUMP JUMPDEST SWAP1 POP PUSH2 0x189C PUSH32 0xD1F4566814351105DB5FE2624E4DAEDB5C35A76C48AD7AC919DEC7D06F5176B5 PUSH1 0x0 SHL PUSH2 0x1FC2 JUMP JUMPDEST PUSH2 0x18C8 PUSH32 0x1EEE92159A69F12A897B6795AA8E88504396655FEA51D0A45222DC9D53923994 PUSH1 0x0 SHL PUSH2 0x1FC2 JUMP JUMPDEST PUSH1 0x1 DUP3 DUP2 SLOAD DUP2 LT PUSH2 0x18DC JUMPI PUSH2 0x18DB PUSH2 0x2935 JUMP JUMPDEST JUMPDEST SWAP1 PUSH1 0x0 MSTORE PUSH1 0x20 PUSH1 0x0 KECCAK256 SWAP1 PUSH1 0x8 MUL ADD PUSH1 0x7 ADD PUSH1 0x0 SWAP1 SLOAD SWAP1 PUSH2 0x100 EXP SWAP1 DIV PUSH20 0xFFFFFFFFFFFFFFFFFFFFFFFFFFFFFFFFFFFFFFFF AND PUSH20 0xFFFFFFFFFFFFFFFFFFFFFFFFFFFFFFFFFFFFFFFF AND PUSH2 0x8FC PUSH1 0xA PUSH1 0x9 DUP5 PUSH2 0x1936 SWAP2 SWAP1 PUSH2 0x2BA4 JUMP JUMPDEST PUSH2 0x1940 SWAP2 SWAP1 PUSH2 0x2C2D JUMP JUMPDEST SWAP1 DUP2 ISZERO MUL SWAP1 PUSH1 0x40 MLOAD PUSH1 0x0 PUSH1 0x40 MLOAD DUP1 DUP4 SUB DUP2 DUP6 DUP9 DUP9 CALL SWAP4 POP POP POP POP ISZERO DUP1 ISZERO PUSH2 0x196B JUMPI RETURNDATASIZE PUSH1 0x0 DUP1 RETURNDATACOPY RETURNDATASIZE PUSH1 0x0 REVERT JUMPDEST POP PUSH2 0x1998 PUSH32 0x7C4B3D298999CAD8B34E502043CE0907D6C029FB05712BB34683B44B6B4CF042 PUSH1 0x0 SHL PUSH2 0x1FC2 JUMP JUMPDEST PUSH2 0x19C4 PUSH32 0x439051756E8A41B0C452B3B3DD316B343DC66B50A6AC11E976E870029B04D994 PUSH1 0x0 SHL PUSH2 0x1FC2 JUMP JUMPDEST PUSH1 0xA PUSH1 0x9 DUP3 PUSH2 0x19D3 SWAP2 SWAP1 PUSH2 0x2BA4 JUMP JUMPDEST PUSH2 0x19DD SWAP2 SWAP1 PUSH2 0x2C2D JUMP JUMPDEST DUP2 PUSH2 0x19E8 SWAP2 SWAP1 PUSH2 0x2C5E JUMP JUMPDEST PUSH1 0x2 PUSH1 0x0 DUP3 DUP3 SLOAD PUSH2 0x19F9 SWAP2 SWAP1 PUSH2 0x2A6B JUMP JUMPDEST SWAP3 POP POP DUP2 SWAP1 SSTORE POP POP POP JUMP JUMPDEST PUSH2 0x1A30 PUSH32 0xDEF27571B7605754B15507D27BCE8A3E133CD6F0252C1EE9E6B5481FE5A3C02D PUSH1 0x0 SHL PUSH2 0x1FC2 JUMP JUMPDEST PUSH2 0x1A5C PUSH32 0x6935A96B4AD225B800C68022E8E3FE711187C02FD46177D3B8C75B46C94911FF PUSH1 0x0 SHL PUSH2 0x1FC2 JUMP JUMPDEST PUSH2 0x1A88 PUSH32 0x8DCE1C0AFA7BA1AA0749667493A5C7471BB5DCC733534BAC708C363287BDDCF3 PUSH1 0x0 SHL PUSH2 0x1FC2 JUMP JUMPDEST PUSH2 0x1AB4 PUSH32 0x347AA1665E6C8D209174A21E1A6267A5F688AA7D6E0F49D57FAD27DFC656FD18 PUSH1 0x0 SHL PUSH2 0x1FC2 JUMP JUMPDEST PUSH1 0x0 DUP1 SLOAD SWAP1 PUSH2 0x100 EXP SWAP1 DIV PUSH20 0xFFFFFFFFFFFFFFFFFFFFFFFFFFFFFFFFFFFFFFFF AND PUSH20 0xFFFFFFFFFFFFFFFFFFFFFFFFFFFFFFFFFFFFFFFF AND CALLER PUSH20 0xFFFFFFFFFFFFFFFFFFFFFFFFFFFFFFFFFFFFFFFF AND EQ PUSH2 0x1B0C JUMPI PUSH1 0x0 DUP1 REVERT JUMPDEST PUSH2 0x1B38 PUSH32 0x24E768AAC29A5CEF226BF3BFDE7B5D4C69BA148E138ADC19530403B9D4036B8 PUSH1 0x0 SHL PUSH2 0x1FC2 JUMP JUMPDEST PUSH2 0x1B64 PUSH32 0x3444601A7B42B5AA7D22DABBCDFDA179884F2381F163647D65684D8F92C4A963 PUSH1 0x0 SHL PUSH2 0x1FC2 JUMP JUMPDEST PUSH2 0x1B90 PUSH32 0x4073B5327859530F4C235EB056376447508A638302597FD591F51734A0AE19EF PUSH1 0x0 SHL PUSH2 0x1FC2 JUMP JUMPDEST PUSH1 0x0 PUSH1 0x1 DUP1 SLOAD SWAP1 POP SWAP1 POP PUSH2 0x1BC6 PUSH32 0x760AEC3EC3DDE10257A2FEBCBE437291AC908C77A57E0E770B56A5C8A118C796 PUSH1 0x0 SHL PUSH2 0x1FC2 JUMP JUMPDEST PUSH2 0x1BF2 PUSH32 0x15067027B35A46147BD4E4774438423F706E78F8DA2C1507C6F7FAE4B2EDF49C PUSH1 0x0 SHL PUSH2 0x1FC2 JUMP JUMPDEST PUSH1 0x1 DUP1 DUP2 PUSH1 0x1 DUP2 SLOAD ADD DUP1 DUP3 SSTORE DUP1 SWAP2 POP POP SUB SWAP1 PUSH1 0x0 MSTORE PUSH1 0x20 PUSH1 0x0 KECCAK256 SWAP1 POP POP PUSH2 0x1C3B PUSH32 0x53EA4313B2198DC6F8727057F585048F55E05923413F5498B531C84FC950AFD4 PUSH1 0x0 SHL PUSH2 0x1FC2 JUMP JUMPDEST PUSH2 0x1C67 PUSH32 0xA249081AD83576F7F98047A39BF2D0FC964DE1D67AD0B483E09AE060EE84948 PUSH1 0x0 SHL PUSH2 0x1FC2 JUMP JUMPDEST PUSH1 0x0 PUSH1 0x1 DUP3 DUP2 SLOAD DUP2 LT PUSH2 0x1C7D JUMPI PUSH2 0x1C7C PUSH2 0x2935 JUMP JUMPDEST JUMPDEST SWAP1 PUSH1 0x0 MSTORE PUSH1 0x20 PUSH1 0x0 KECCAK256 SWAP1 PUSH1 0x8 MUL ADD SWAP1 POP PUSH2 0x1CB9 PUSH32 0xB7DF51E3D964D2652077397134D455B29BD4E48FDBB21C88C6CCA42563B45096 PUSH1 0x0 SHL PUSH2 0x1FC2 JUMP JUMPDEST PUSH2 0x1CE5 PUSH32 0x39D0B4C5350B231AEBC2CBD249795F5E067AE1874AE59EE20670CCCB7A7E5B09 PUSH1 0x0 SHL PUSH2 0x1FC2 JUMP JUMPDEST PUSH1 0x0 DUP2 PUSH1 0x4 ADD PUSH1 0x0 PUSH2 0x100 EXP DUP2 SLOAD DUP2 PUSH1 0xFF MUL NOT AND SWAP1 DUP4 ISZERO ISZERO MUL OR SWAP1 SSTORE POP PUSH2 0x1D2E PUSH32 0xD84A19F453FC789370181A10F80A358AF2FEA84A75349EBABF7B00575523418 PUSH1 0x0 SHL PUSH2 0x1FC2 JUMP JUMPDEST PUSH2 0x1D5A PUSH32 0xB41698B56428EDDCA0352E1C4F7C0CE3F1BB52E557B21894B4AA987509677A4F PUSH1 0x0 SHL PUSH2 0x1FC2 JUMP JUMPDEST TIMESTAMP DUP2 PUSH1 0x5 ADD DUP2 SWAP1 SSTORE POP PUSH2 0x1D8F PUSH32 0x64BF7B5FE9233C2910564E58138B586E38B6EAF1B177D16C3592BD0A7E7C7E04 PUSH1 0x0 SHL PUSH2 0x1FC2 JUMP JUMPDEST PUSH2 0x1DBB PUSH32 0x6E9CDD243978D066110F15022A195ACEA0FC869FFA30055895FB2AD3B2BC0EBD PUSH1 0x0 SHL PUSH2 0x1FC2 JUMP JUMPDEST PUSH1 0x0 JUMPDEST DUP5 DUP5 SWAP1 POP DUP2 LT ISZERO PUSH2 0x1F91 JUMPI PUSH2 0x1DF5 PUSH32 0xA963102966DD9100863B77E0E8A0670726EBF5CEDDCBECD5B81D5BA7C8E79405 PUSH1 0x0 SHL PUSH2 0x1FC2 JUMP JUMPDEST PUSH2 0x1E21 PUSH32 0xA5DA0F38BC969595896F54FE0A9FF2E05F335537347E15EBBC3231C131F9C9C3 PUSH1 0x0 SHL PUSH2 0x1FC2 JUMP JUMPDEST DUP2 PUSH1 0x0 ADD DUP6 DUP6 DUP4 DUP2 DUP2 LT PUSH2 0x1E38 JUMPI PUSH2 0x1E37 PUSH2 0x2935 JUMP JUMPDEST JUMPDEST SWAP1 POP PUSH1 0x20 MUL ADD PUSH1 0x20 DUP2 ADD SWAP1 PUSH2 0x1E4D SWAP2 SWAP1 PUSH2 0x2C92 JUMP JUMPDEST SWAP1 DUP1 PUSH1 0x1 DUP2 SLOAD ADD DUP1 DUP3 SSTORE DUP1 SWAP2 POP POP PUSH1 0x1 SWAP1 SUB SWAP1 PUSH1 0x0 MSTORE PUSH1 0x20 PUSH1 0x0 KECCAK256 ADD PUSH1 0x0 SWAP1 SWAP2 SWAP1 SWAP2 SWAP1 SWAP2 PUSH2 0x100 EXP DUP2 SLOAD DUP2 PUSH20 0xFFFFFFFFFFFFFFFFFFFFFFFFFFFFFFFFFFFFFFFF MUL NOT AND SWAP1 DUP4 PUSH20 0xFFFFFFFFFFFFFFFFFFFFFFFFFFFFFFFFFFFFFFFF AND MUL OR SWAP1 SSTORE POP PUSH2 0x1ED9 PUSH32 0xD81FD9FBB683A99300EE091799D471C42F3D99E8589CF41E511F75F000C9820C PUSH1 0x0 SHL PUSH2 0x1FC2 JUMP JUMPDEST PUSH2 0x1F05 PUSH32 0x9DDC069327DE041FC2E7DF0069692FCCB1DE6066F939AD46404EBA8C5EF31FBF PUSH1 0x0 SHL PUSH2 0x1FC2 JUMP JUMPDEST PUSH1 0x1 DUP2 PUSH2 0x1F12 SWAP2 SWAP1 PUSH2 0x2A6B JUMP JUMPDEST DUP3 PUSH1 0x1 ADD PUSH1 0x0 DUP8 DUP8 DUP6 DUP2 DUP2 LT PUSH2 0x1F2B JUMPI PUSH2 0x1F2A PUSH2 0x2935 JUMP JUMPDEST JUMPDEST SWAP1 POP PUSH1 0x20 MUL ADD PUSH1 0x20 DUP2 ADD SWAP1 PUSH2 0x1F40 SWAP2 SWAP1 PUSH2 0x2C92 JUMP JUMPDEST PUSH20 0xFFFFFFFFFFFFFFFFFFFFFFFFFFFFFFFFFFFFFFFF AND PUSH20 0xFFFFFFFFFFFFFFFFFFFFFFFFFFFFFFFFFFFFFFFF AND DUP2 MSTORE PUSH1 0x20 ADD SWAP1 DUP2 MSTORE PUSH1 0x20 ADD PUSH1 0x0 KECCAK256 DUP2 SWAP1 SSTORE POP DUP1 DUP1 PUSH2 0x1F89 SWAP1 PUSH2 0x2B2D JUMP JUMPDEST SWAP2 POP POP PUSH2 0x1DBE JUMP JUMPDEST POP POP POP POP POP JUMP JUMPDEST PUSH1 0x0 DUP1 SLOAD SWAP1 PUSH2 0x100 EXP SWAP1 DIV PUSH20 0xFFFFFFFFFFFFFFFFFFFFFFFFFFFFFFFFFFFFFFFF AND DUP2 JUMP JUMPDEST PUSH1 0x2 SLOAD DUP2 JUMP JUMPDEST POP JUMP JUMPDEST PUSH1 0x0 PUSH2 0x1FF3 PUSH32 0xB6E74CA024F911926F47CB814278FF3533B4496F1986548CD43B229EE746ED66 PUSH1 0x0 SHL PUSH2 0x1FC2 JUMP JUMPDEST PUSH2 0x201F PUSH32 0x5AE8BA14604013C868F3AEB9C3C8A52124ADB8888A4601C11CEC542ABF417448 PUSH1 0x0 SHL PUSH2 0x1FC2 JUMP JUMPDEST PUSH2 0x204B PUSH32 0xA72201246540394933BA16F55F894D7F5B9FF189BA2836DCCAD77D288AB14BD7 PUSH1 0x0 SHL PUSH2 0x1FC2 JUMP JUMPDEST PUSH1 0x0 JUMPDEST PUSH1 0x1 DUP5 DUP2 SLOAD DUP2 LT PUSH2 0x2062 JUMPI PUSH2 0x2061 PUSH2 0x2935 JUMP JUMPDEST JUMPDEST SWAP1 PUSH1 0x0 MSTORE PUSH1 0x20 PUSH1 0x0 KECCAK256 SWAP1 PUSH1 0x8 MUL ADD PUSH1 0x3 ADD DUP1 SLOAD SWAP1 POP DUP2 LT ISZERO PUSH2 0x220B JUMPI PUSH2 0x20AA PUSH32 0x28C7A1CE1BC7ADF0E90F7AA4335048E5113BA5BBD95C8714DC9DC0ACDF51F01B PUSH1 0x0 SHL PUSH2 0x1FC2 JUMP JUMPDEST PUSH2 0x20D6 PUSH32 0xE6B0E58F05EA7FD6679D297888BB7465EB1349396DB4C2955E50F3A5CEA5E2F2 PUSH1 0x0 SHL PUSH2 0x1FC2 JUMP JUMPDEST DUP3 PUSH20 0xFFFFFFFFFFFFFFFFFFFFFFFFFFFFFFFFFFFFFFFF AND PUSH1 0x1 DUP6 DUP2 SLOAD DUP2 LT PUSH2 0x2101 JUMPI PUSH2 0x2100 PUSH2 0x2935 JUMP JUMPDEST JUMPDEST SWAP1 PUSH1 0x0 MSTORE PUSH1 0x20 PUSH1 0x0 KECCAK256 SWAP1 PUSH1 0x8 MUL ADD PUSH1 0x3 ADD DUP3 DUP2 SLOAD DUP2 LT PUSH2 0x2124 JUMPI PUSH2 0x2123 PUSH2 0x2935 JUMP JUMPDEST JUMPDEST SWAP1 PUSH1 0x0 MSTORE PUSH1 0x20 PUSH1 0x0 KECCAK256 ADD PUSH1 0x0 SWAP1 SLOAD SWAP1 PUSH2 0x100 EXP SWAP1 DIV PUSH20 0xFFFFFFFFFFFFFFFFFFFFFFFFFFFFFFFFFFFFFFFF AND PUSH20 0xFFFFFFFFFFFFFFFFFFFFFFFFFFFFFFFFFFFFFFFF AND SUB PUSH2 0x21CC JUMPI PUSH2 0x2196 PUSH32 0x48035A5573E8441D61B186BD9B63B3A1F08F904CE92D226A7407207C001B0EF7 PUSH1 0x0 SHL PUSH2 0x1FC2 JUMP JUMPDEST PUSH2 0x21C2 PUSH32 0xCB6B11ED7A5EA0B8FBDB3E582D76D311E751EA57E51B6CD83B4DC94F8985416 PUSH1 0x0 SHL PUSH2 0x1FC2 JUMP JUMPDEST PUSH1 0x1 SWAP2 POP POP PUSH2 0x2269 JUMP JUMPDEST PUSH2 0x21F8 PUSH32 0xCF6A82B73FC79E8A5B2CA68C46B097B19A77EEEF62BB0239E2AA2D69B3F21C3B PUSH1 0x0 SHL PUSH2 0x1FC2 JUMP JUMPDEST DUP1 DUP1 PUSH2 0x2203 SWAP1 PUSH2 0x2B2D JUMP JUMPDEST SWAP2 POP POP PUSH2 0x204E JUMP JUMPDEST POP PUSH2 0x2238 PUSH32 0x9FB1069F014D6F8E1B921169E45D065FA5EB856EB45745D44F121F1AB8D66897 PUSH1 0x0 SHL PUSH2 0x1FC2 JUMP JUMPDEST PUSH2 0x2264 PUSH32 0x37B997B572729AEFF9E759BCCF1E8562BE2AD08CD5C4D8A71E7DDF64F29C92D9 PUSH1 0x0 SHL PUSH2 0x1FC2 JUMP JUMPDEST PUSH1 0x0 SWAP1 POP JUMPDEST SWAP3 SWAP2 POP POP JUMP JUMPDEST PUSH1 0x0 PUSH2 0x229D PUSH32 0xAAD24890C690A0AEC24C75F517C3C214C880D22ED18CE800F844509EFE6F236D PUSH1 0x0 SHL PUSH2 0x1FC2 JUMP JUMPDEST PUSH2 0x22C9 PUSH32 0xF49E2594CA0540CB1A0D9D66A0A61054163B3380116E10E40B903A285E4E2D22 PUSH1 0x0 SHL PUSH2 0x1FC2 JUMP JUMPDEST PUSH2 0x22F5 PUSH32 0x8DE414536B6C2C08F9438864652D7F73CF5E6A4FDC1A0E34F3F4FF43068536E3 PUSH1 0x0 SHL PUSH2 0x1FC2 JUMP JUMPDEST PUSH1 0x0 PUSH1 0x1 DUP5 DUP2 SLOAD DUP2 LT PUSH2 0x230B JUMPI PUSH2 0x230A PUSH2 0x2935 JUMP JUMPDEST JUMPDEST SWAP1 PUSH1 0x0 MSTORE PUSH1 0x20 PUSH1 0x0 KECCAK256 SWAP1 PUSH1 0x8 MUL ADD PUSH1 0x1 ADD PUSH1 0x0 DUP5 PUSH20 0xFFFFFFFFFFFFFFFFFFFFFFFFFFFFFFFFFFFFFFFF AND PUSH20 0xFFFFFFFFFFFFFFFFFFFFFFFFFFFFFFFFFFFFFFFF AND DUP2 MSTORE PUSH1 0x20 ADD SWAP1 DUP2 MSTORE PUSH1 0x20 ADD PUSH1 0x0 KECCAK256 SLOAD EQ PUSH2 0x23EC JUMPI PUSH2 0x238B PUSH32 0x3825EB9E3CF891C452D99943B5646B7019A99081D32EC6BA9ABBBB226468D462 PUSH1 0x0 SHL PUSH2 0x1FC2 JUMP JUMPDEST PUSH2 0x23B7 PUSH32 0x4B1BF8A03420F034554A97CCC9BA1953705A60105E3E995E287738345B721D88 PUSH1 0x0 SHL PUSH2 0x1FC2 JUMP JUMPDEST PUSH2 0x23E3 PUSH32 0xE4F627DD7B0300BDE81F016D6A8AB06A771803A4B3082EA4D0734967F7F060C4 PUSH1 0x0 SHL PUSH2 0x1FC2 JUMP JUMPDEST PUSH1 0x1 SWAP1 POP PUSH2 0x2475 JUMP JUMPDEST PUSH2 0x2418 PUSH32 0x47798309B516A08EEF5C0D89E4C306D02E4A46CED4F76093CA66F3FCAE0B45C2 PUSH1 0x0 SHL PUSH2 0x1FC2 JUMP JUMPDEST PUSH2 0x2444 PUSH32 0x9692A21E5CEA3C1AD82AAED2765D5326C4F4E5F9E17DFE7D5FAD0907254F97DD PUSH1 0x0 SHL PUSH2 0x1FC2 JUMP JUMPDEST PUSH2 0x2470 PUSH32 0xAED88FD0EFBDFB7F1CE94B244D4874DE71E8D6263F1269E7280B24E11CB3D2AD PUSH1 0x0 SHL PUSH2 0x1FC2 JUMP JUMPDEST PUSH1 0x0 SWAP1 POP JUMPDEST SWAP3 SWAP2 POP POP JUMP JUMPDEST PUSH1 0x0 DUP2 SWAP1 POP SWAP2 SWAP1 POP JUMP JUMPDEST PUSH2 0x248E DUP2 PUSH2 0x247B JUMP JUMPDEST DUP3 MSTORE POP POP JUMP JUMPDEST PUSH1 0x0 PUSH1 0x20 DUP3 ADD SWAP1 POP PUSH2 0x24A9 PUSH1 0x0 DUP4 ADD DUP5 PUSH2 0x2485 JUMP JUMPDEST SWAP3 SWAP2 POP POP JUMP JUMPDEST PUSH1 0x0 DUP1 REVERT JUMPDEST PUSH1 0x0 DUP1 REVERT JUMPDEST PUSH2 0x24C2 DUP2 PUSH2 0x247B JUMP JUMPDEST DUP2 EQ PUSH2 0x24CD JUMPI PUSH1 0x0 DUP1 REVERT JUMPDEST POP JUMP JUMPDEST PUSH1 0x0 DUP2 CALLDATALOAD SWAP1 POP PUSH2 0x24DF DUP2 PUSH2 0x24B9 JUMP JUMPDEST SWAP3 SWAP2 POP POP JUMP JUMPDEST PUSH1 0x0 PUSH20 0xFFFFFFFFFFFFFFFFFFFFFFFFFFFFFFFFFFFFFFFF DUP3 AND SWAP1 POP SWAP2 SWAP1 POP JUMP JUMPDEST PUSH1 0x0 PUSH2 0x2510 DUP3 PUSH2 0x24E5 JUMP JUMPDEST SWAP1 POP SWAP2 SWAP1 POP JUMP JUMPDEST PUSH2 0x2520 DUP2 PUSH2 0x2505 JUMP JUMPDEST DUP2 EQ PUSH2 0x252B JUMPI PUSH1 0x0 DUP1 REVERT JUMPDEST POP JUMP JUMPDEST PUSH1 0x0 DUP2 CALLDATALOAD SWAP1 POP PUSH2 0x253D DUP2 PUSH2 0x2517 JUMP JUMPDEST SWAP3 SWAP2 POP POP JUMP JUMPDEST PUSH1 0x0 DUP1 PUSH1 0x40 DUP4 DUP6 SUB SLT ISZERO PUSH2 0x255A JUMPI PUSH2 0x2559 PUSH2 0x24AF JUMP JUMPDEST JUMPDEST PUSH1 0x0 PUSH2 0x2568 DUP6 DUP3 DUP7 ADD PUSH2 0x24D0 JUMP JUMPDEST SWAP3 POP POP PUSH1 0x20 PUSH2 0x2579 DUP6 DUP3 DUP7 ADD PUSH2 0x252E JUMP JUMPDEST SWAP2 POP POP SWAP3 POP SWAP3 SWAP1 POP JUMP JUMPDEST PUSH1 0x0 DUP2 ISZERO ISZERO SWAP1 POP SWAP2 SWAP1 POP JUMP JUMPDEST PUSH2 0x2598 DUP2 PUSH2 0x2583 JUMP JUMPDEST DUP3 MSTORE POP POP JUMP JUMPDEST PUSH1 0x0 PUSH1 0x20 DUP3 ADD SWAP1 POP PUSH2 0x25B3 PUSH1 0x0 DUP4 ADD DUP5 PUSH2 0x258F JUMP JUMPDEST SWAP3 SWAP2 POP POP JUMP JUMPDEST PUSH1 0x0 PUSH1 0x20 DUP3 DUP5 SUB SLT ISZERO PUSH2 0x25CF JUMPI PUSH2 0x25CE PUSH2 0x24AF JUMP JUMPDEST JUMPDEST PUSH1 0x0 PUSH2 0x25DD DUP5 DUP3 DUP6 ADD PUSH2 0x24D0 JUMP JUMPDEST SWAP2 POP POP SWAP3 SWAP2 POP POP JUMP JUMPDEST PUSH1 0x0 DUP2 MLOAD SWAP1 POP SWAP2 SWAP1 POP JUMP JUMPDEST PUSH1 0x0 DUP3 DUP3 MSTORE PUSH1 0x20 DUP3 ADD SWAP1 POP SWAP3 SWAP2 POP POP JUMP JUMPDEST PUSH1 0x0 DUP2 SWAP1 POP PUSH1 0x20 DUP3 ADD SWAP1 POP SWAP2 SWAP1 POP JUMP JUMPDEST PUSH2 0x261B DUP2 PUSH2 0x2505 JUMP JUMPDEST DUP3 MSTORE POP POP JUMP JUMPDEST PUSH1 0x0 PUSH2 0x262D DUP4 DUP4 PUSH2 0x2612 JUMP JUMPDEST PUSH1 0x20 DUP4 ADD SWAP1 POP SWAP3 SWAP2 POP POP JUMP JUMPDEST PUSH1 0x0 PUSH1 0x20 DUP3 ADD SWAP1 POP SWAP2 SWAP1 POP JUMP JUMPDEST PUSH1 0x0 PUSH2 0x2651 DUP3 PUSH2 0x25E6 JUMP JUMPDEST PUSH2 0x265B DUP2 DUP6 PUSH2 0x25F1 JUMP JUMPDEST SWAP4 POP PUSH2 0x2666 DUP4 PUSH2 0x2602 JUMP JUMPDEST DUP1 PUSH1 0x0 JUMPDEST DUP4 DUP2 LT ISZERO PUSH2 0x2697 JUMPI DUP2 MLOAD PUSH2 0x267E DUP9 DUP3 PUSH2 0x2621 JUMP JUMPDEST SWAP8 POP PUSH2 0x2689 DUP4 PUSH2 0x2639 JUMP JUMPDEST SWAP3 POP POP PUSH1 0x1 DUP2 ADD SWAP1 POP PUSH2 0x266A JUMP JUMPDEST POP DUP6 SWAP4 POP POP POP POP SWAP3 SWAP2 POP POP JUMP JUMPDEST PUSH1 0x0 PUSH1 0x60 DUP3 ADD SWAP1 POP DUP2 DUP2 SUB PUSH1 0x0 DUP4 ADD MSTORE PUSH2 0x26BE DUP2 DUP7 PUSH2 0x2646 JUMP JUMPDEST SWAP1 POP PUSH2 0x26CD PUSH1 0x20 DUP4 ADD DUP6 PUSH2 0x258F JUMP JUMPDEST PUSH2 0x26DA PUSH1 0x40 DUP4 ADD DUP5 PUSH2 0x2485 JUMP JUMPDEST SWAP5 SWAP4 POP POP POP POP JUMP JUMPDEST PUSH1 0x0 PUSH1 0x20 DUP3 ADD SWAP1 POP DUP2 DUP2 SUB PUSH1 0x0 DUP4 ADD MSTORE PUSH2 0x26FC DUP2 DUP5 PUSH2 0x2646 JUMP JUMPDEST SWAP1 POP SWAP3 SWAP2 POP POP JUMP JUMPDEST PUSH1 0x0 DUP1 REVERT JUMPDEST PUSH1 0x0 DUP1 REVERT JUMPDEST PUSH1 0x0 DUP1 REVERT JUMPDEST PUSH1 0x0 DUP1 DUP4 PUSH1 0x1F DUP5 ADD SLT PUSH2 0x2729 JUMPI PUSH2 0x2728 PUSH2 0x2704 JUMP JUMPDEST JUMPDEST DUP3 CALLDATALOAD SWAP1 POP PUSH8 0xFFFFFFFFFFFFFFFF DUP2 GT ISZERO PUSH2 0x2746 JUMPI PUSH2 0x2745 PUSH2 0x2709 JUMP JUMPDEST JUMPDEST PUSH1 0x20 DUP4 ADD SWAP2 POP DUP4 PUSH1 0x20 DUP3 MUL DUP4 ADD GT ISZERO PUSH2 0x2762 JUMPI PUSH2 0x2761 PUSH2 0x270E JUMP JUMPDEST JUMPDEST SWAP3 POP SWAP3 SWAP1 POP JUMP JUMPDEST PUSH1 0x0 DUP1 PUSH1 0x20 DUP4 DUP6 SUB SLT ISZERO PUSH2 0x2780 JUMPI PUSH2 0x277F PUSH2 0x24AF JUMP JUMPDEST JUMPDEST PUSH1 0x0 DUP4 ADD CALLDATALOAD PUSH8 0xFFFFFFFFFFFFFFFF DUP2 GT ISZERO PUSH2 0x279E JUMPI PUSH2 0x279D PUSH2 0x24B4 JUMP JUMPDEST JUMPDEST PUSH2 0x27AA DUP6 DUP3 DUP7 ADD PUSH2 0x2713 JUMP JUMPDEST SWAP3 POP SWAP3 POP POP SWAP3 POP SWAP3 SWAP1 POP JUMP JUMPDEST PUSH2 0x27BF DUP2 PUSH2 0x2505 JUMP JUMPDEST DUP3 MSTORE POP POP JUMP JUMPDEST PUSH1 0x0 PUSH1 0x20 DUP3 ADD SWAP1 POP PUSH2 0x27DA PUSH1 0x0 DUP4 ADD DUP5 PUSH2 0x27B6 JUMP JUMPDEST SWAP3 SWAP2 POP POP JUMP JUMPDEST PUSH1 0x0 DUP3 DUP3 MSTORE PUSH1 0x20 DUP3 ADD SWAP1 POP SWAP3 SWAP2 POP POP JUMP JUMPDEST PUSH32 0x496E636F727265637420616D6F756E74206F6620657468657273000000000000 PUSH1 0x0 DUP3 ADD MSTORE POP JUMP JUMPDEST PUSH1 0x0 PUSH2 0x2827 PUSH1 0x1A DUP4 PUSH2 0x27E0 JUMP JUMPDEST SWAP2 POP PUSH2 0x2832 DUP3 PUSH2 0x27F1 JUMP JUMPDEST PUSH1 0x20 DUP3 ADD SWAP1 POP SWAP2 SWAP1 POP JUMP JUMPDEST PUSH1 0x0 PUSH1 0x20 DUP3 ADD SWAP1 POP DUP2 DUP2 SUB PUSH1 0x0 DUP4 ADD MSTORE PUSH2 0x2856 DUP2 PUSH2 0x281A JUMP JUMPDEST SWAP1 POP SWAP2 SWAP1 POP JUMP JUMPDEST PUSH32 0x506F6C6C206964203E20706F6C6C7320616D6F756E7400000000000000000000 PUSH1 0x0 DUP3 ADD MSTORE POP JUMP JUMPDEST PUSH1 0x0 PUSH2 0x2893 PUSH1 0x16 DUP4 PUSH2 0x27E0 JUMP JUMPDEST SWAP2 POP PUSH2 0x289E DUP3 PUSH2 0x285D JUMP JUMPDEST PUSH1 0x20 DUP3 ADD SWAP1 POP SWAP2 SWAP1 POP JUMP JUMPDEST PUSH1 0x0 PUSH1 0x20 DUP3 ADD SWAP1 POP DUP2 DUP2 SUB PUSH1 0x0 DUP4 ADD MSTORE PUSH2 0x28C2 DUP2 PUSH2 0x2886 JUMP JUMPDEST SWAP1 POP SWAP2 SWAP1 POP JUMP JUMPDEST PUSH32 0x416C726561647920766F74656400000000000000000000000000000000000000 PUSH1 0x0 DUP3 ADD MSTORE POP JUMP JUMPDEST PUSH1 0x0 PUSH2 0x28FF PUSH1 0xD DUP4 PUSH2 0x27E0 JUMP JUMPDEST SWAP2 POP PUSH2 0x290A DUP3 PUSH2 0x28C9 JUMP JUMPDEST PUSH1 0x20 DUP3 ADD SWAP1 POP SWAP2 SWAP1 POP JUMP JUMPDEST PUSH1 0x0 PUSH1 0x20 DUP3 ADD SWAP1 POP DUP2 DUP2 SUB PUSH1 0x0 DUP4 ADD MSTORE PUSH2 0x292E DUP2 PUSH2 0x28F2 JUMP JUMPDEST SWAP1 POP SWAP2 SWAP1 POP JUMP JUMPDEST PUSH32 0x4E487B7100000000000000000000000000000000000000000000000000000000 PUSH1 0x0 MSTORE PUSH1 0x32 PUSH1 0x4 MSTORE PUSH1 0x24 PUSH1 0x0 REVERT JUMPDEST PUSH32 0x506F6C6C2069732066696E697368656400000000000000000000000000000000 PUSH1 0x0 DUP3 ADD MSTORE POP JUMP JUMPDEST PUSH1 0x0 PUSH2 0x299A PUSH1 0x10 DUP4 PUSH2 0x27E0 JUMP JUMPDEST SWAP2 POP PUSH2 0x29A5 DUP3 PUSH2 0x2964 JUMP JUMPDEST PUSH1 0x20 DUP3 ADD SWAP1 POP SWAP2 SWAP1 POP JUMP JUMPDEST PUSH1 0x0 PUSH1 0x20 DUP3 ADD SWAP1 POP DUP2 DUP2 SUB PUSH1 0x0 DUP4 ADD MSTORE PUSH2 0x29C9 DUP2 PUSH2 0x298D JUMP JUMPDEST SWAP1 POP SWAP2 SWAP1 POP JUMP JUMPDEST PUSH32 0x496E636F72726563742063616E64696461746500000000000000000000000000 PUSH1 0x0 DUP3 ADD MSTORE POP JUMP JUMPDEST PUSH1 0x0 PUSH2 0x2A06 PUSH1 0x13 DUP4 PUSH2 0x27E0 JUMP JUMPDEST SWAP2 POP PUSH2 0x2A11 DUP3 PUSH2 0x29D0 JUMP JUMPDEST PUSH1 0x20 DUP3 ADD SWAP1 POP SWAP2 SWAP1 POP JUMP JUMPDEST PUSH1 0x0 PUSH1 0x20 DUP3 ADD SWAP1 POP DUP2 DUP2 SUB PUSH1 0x0 DUP4 ADD MSTORE PUSH2 0x2A35 DUP2 PUSH2 0x29F9 JUMP JUMPDEST SWAP1 POP SWAP2 SWAP1 POP JUMP JUMPDEST PUSH32 0x4E487B7100000000000000000000000000000000000000000000000000000000 PUSH1 0x0 MSTORE PUSH1 0x11 PUSH1 0x4 MSTORE PUSH1 0x24 PUSH1 0x0 REVERT JUMPDEST PUSH1 0x0 PUSH2 0x2A76 DUP3 PUSH2 0x247B JUMP JUMPDEST SWAP2 POP PUSH2 0x2A81 DUP4 PUSH2 0x247B JUMP JUMPDEST SWAP3 POP DUP3 PUSH32 0xFFFFFFFFFFFFFFFFFFFFFFFFFFFFFFFFFFFFFFFFFFFFFFFFFFFFFFFFFFFFFFFF SUB DUP3 GT ISZERO PUSH2 0x2AB6 JUMPI PUSH2 0x2AB5 PUSH2 0x2A3C JUMP JUMPDEST JUMPDEST DUP3 DUP3 ADD SWAP1 POP SWAP3 SWAP2 POP POP JUMP JUMPDEST PUSH32 0x546F6F206C617465000000000000000000000000000000000000000000000000 PUSH1 0x0 DUP3 ADD MSTORE POP JUMP JUMPDEST PUSH1 0x0 PUSH2 0x2AF7 PUSH1 0x8 DUP4 PUSH2 0x27E0 JUMP JUMPDEST SWAP2 POP PUSH2 0x2B02 DUP3 PUSH2 0x2AC1 JUMP JUMPDEST PUSH1 0x20 DUP3 ADD SWAP1 POP SWAP2 SWAP1 POP JUMP JUMPDEST PUSH1 0x0 PUSH1 0x20 DUP3 ADD SWAP1 POP DUP2 DUP2 SUB PUSH1 0x0 DUP4 ADD MSTORE PUSH2 0x2B26 DUP2 PUSH2 0x2AEA JUMP JUMPDEST SWAP1 POP SWAP2 SWAP1 POP JUMP JUMPDEST PUSH1 0x0 PUSH2 0x2B38 DUP3 PUSH2 0x247B JUMP JUMPDEST SWAP2 POP PUSH32 0xFFFFFFFFFFFFFFFFFFFFFFFFFFFFFFFFFFFFFFFFFFFFFFFFFFFFFFFFFFFFFFFF DUP3 SUB PUSH2 0x2B6A JUMPI PUSH2 0x2B69 PUSH2 0x2A3C JUMP JUMPDEST JUMPDEST PUSH1 0x1 DUP3 ADD SWAP1 POP SWAP2 SWAP1 POP JUMP JUMPDEST PUSH32 0x4E487B7100000000000000000000000000000000000000000000000000000000 PUSH1 0x0 MSTORE PUSH1 0x41 PUSH1 0x4 MSTORE PUSH1 0x24 PUSH1 0x0 REVERT JUMPDEST PUSH1 0x0 PUSH2 0x2BAF DUP3 PUSH2 0x247B JUMP JUMPDEST SWAP2 POP PUSH2 0x2BBA DUP4 PUSH2 0x247B JUMP JUMPDEST SWAP3 POP DUP2 PUSH32 0xFFFFFFFFFFFFFFFFFFFFFFFFFFFFFFFFFFFFFFFFFFFFFFFFFFFFFFFFFFFFFFFF DIV DUP4 GT DUP3 ISZERO ISZERO AND ISZERO PUSH2 0x2BF3 JUMPI PUSH2 0x2BF2 PUSH2 0x2A3C JUMP JUMPDEST JUMPDEST DUP3 DUP3 MUL SWAP1 POP SWAP3 SWAP2 POP POP JUMP JUMPDEST PUSH32 0x4E487B7100000000000000000000000000000000000000000000000000000000 PUSH1 0x0 MSTORE PUSH1 0x12 PUSH1 0x4 MSTORE PUSH1 0x24 PUSH1 0x0 REVERT JUMPDEST PUSH1 0x0 PUSH2 0x2C38 DUP3 PUSH2 0x247B JUMP JUMPDEST SWAP2 POP PUSH2 0x2C43 DUP4 PUSH2 0x247B JUMP JUMPDEST SWAP3 POP DUP3 PUSH2 0x2C53 JUMPI PUSH2 0x2C52 PUSH2 0x2BFE JUMP JUMPDEST JUMPDEST DUP3 DUP3 DIV SWAP1 POP SWAP3 SWAP2 POP POP JUMP JUMPDEST PUSH1 0x0 PUSH2 0x2C69 DUP3 PUSH2 0x247B JUMP JUMPDEST SWAP2 POP PUSH2 0x2C74 DUP4 PUSH2 0x247B JUMP JUMPDEST SWAP3 POP DUP3 DUP3 LT ISZERO PUSH2 0x2C87 JUMPI PUSH2 0x2C86 PUSH2 0x2A3C JUMP JUMPDEST JUMPDEST DUP3 DUP3 SUB SWAP1 POP SWAP3 SWAP2 POP POP JUMP JUMPDEST PUSH1 0x0 PUSH1 0x20 DUP3 DUP5 SUB SLT ISZERO PUSH2 0x2CA8 JUMPI PUSH2 0x2CA7 PUSH2 0x24AF JUMP JUMPDEST JUMPDEST PUSH1 0x0 PUSH2 0x2CB6 DUP5 DUP3 DUP6 ADD PUSH2 0x252E JUMP JUMPDEST SWAP2 POP POP SWAP3 SWAP2 POP POP JUMP INVALID LOG2 PUSH5 0x6970667358 0x22 SLT KECCAK256 ADDRESS CODESIZE DUP10 PUSH17 0x483DEDCEA9B47E03D46FD010CCC343BFE8 0xCA SWAP13 CALLER RETURNDATACOPY PUSH12 0xE0617A40D91D64736F6C6343 STOP ADDMOD 0xD STOP CALLER "
        },
        "methodIdentifiers": {
          "addVoting(address[])": "7a798050",
          "fees()": "9af1d35a",
          "finalizePoll(uint256)": "56597e4f",
          "getAmountOfPolls()": "008e2997",
          "getPollCandidates(uint256)": "3d0a64e2",
          "getPollInfo(uint256)": "29b8f44a",
          "owner()": "8da5cb5b",
          "vote(uint256,address)": "02d947ef",
          "withdrawFees()": "476343ee"
        }
      }
    }
  }
}