{
  "_format": "hh-sol-artifact-1",
  "contractName": "Voting",
  "sourceName": "contracts/task2.sol",
  "abi": [
    {
      "inputs": [],
      "stateMutability": "nonpayable",
      "type": "constructor"
    },
    {
      "inputs": [
        {
          "internalType": "address[]",
          "name": "_candidatesAddresses",
          "type": "address[]"
        }
      ],
      "name": "addVoting",
      "outputs": [],
      "stateMutability": "nonpayable",
      "type": "function"
    },
    {
      "inputs": [],
      "name": "fees",
      "outputs": [
        {
          "internalType": "uint256",
          "name": "",
          "type": "uint256"
        }
      ],
      "stateMutability": "view",
      "type": "function"
    },
    {
      "inputs": [
        {
          "internalType": "uint256",
          "name": "poll",
          "type": "uint256"
        }
      ],
      "name": "finalizePoll",
      "outputs": [],
      "stateMutability": "payable",
      "type": "function"
    },
    {
      "inputs": [],
      "name": "getAmountOfPolls",
      "outputs": [
        {
          "internalType": "uint256",
          "name": "",
          "type": "uint256"
        }
      ],
      "stateMutability": "view",
      "type": "function"
    },
    {
      "inputs": [
        {
          "internalType": "uint256",
          "name": "poll",
          "type": "uint256"
        }
      ],
      "name": "getPollCandidates",
      "outputs": [
        {
          "internalType": "address[]",
          "name": "",
          "type": "address[]"
        }
      ],
      "stateMutability": "view",
      "type": "function"
    },
    {
      "inputs": [
        {
          "internalType": "uint256",
          "name": "poll",
          "type": "uint256"
        }
      ],
      "name": "getPollInfo",
      "outputs": [
        {
          "internalType": "address[]",
          "name": "",
          "type": "address[]"
        },
        {
          "internalType": "bool",
          "name": "",
          "type": "bool"
        },
        {
          "internalType": "uint256",
          "name": "",
          "type": "uint256"
        }
      ],
      "stateMutability": "view",
      "type": "function"
    },
    {
      "inputs": [],
      "name": "owner",
      "outputs": [
        {
          "internalType": "address",
          "name": "",
          "type": "address"
        }
      ],
      "stateMutability": "view",
      "type": "function"
    },
    {
      "inputs": [
        {
          "internalType": "uint256",
          "name": "poll",
          "type": "uint256"
        },
        {
          "internalType": "address",
          "name": "voteForCandidate",
          "type": "address"
        }
      ],
      "name": "vote",
      "outputs": [
        {
          "internalType": "bool",
          "name": "",
          "type": "bool"
        }
      ],
      "stateMutability": "payable",
      "type": "function"
    },
    {
      "inputs": [],
      "name": "withdrawFees",
      "outputs": [],
      "stateMutability": "payable",
      "type": "function"
    }
  ],
  "bytecode": "0x608060405260006002553480156200001657600080fd5b506200004b7f4a59351fe9f27d441942d26a7625019561abac6c066ade60c1c6f45a3eb76b8060001b620000f960201b60201c565b6200007f7f52e3b889cd4e55784d82426b754f070ac48de67d784080f4fe77f1b3e2acfbee60001b620000f960201b60201c565b620000b37fb84836808fe3ce2dfd90f651cef2c1f60973ec063f9c3e185667c03fa4511c2a60001b620000f960201b60201c565b336000806101000a81548173ffffffffffffffffffffffffffffffffffffffff021916908373ffffffffffffffffffffffffffffffffffffffff160217905550620000fc565b50565b612cf5806200010c6000396000f3fe6080604052600436106100855760003560e01c8063476343ee11610059578063476343ee1461016157806356597e4f1461016b5780637a798050146101875780638da5cb5b146101b05780639af1d35a146101db57610085565b80628e29971461008a57806302d947ef146100b557806329b8f44a146100e55780633d0a64e214610124575b600080fd5b34801561009657600080fd5b5061009f610206565b6040516100ac9190612494565b60405180910390f35b6100cf60048036038101906100ca9190612543565b610297565b6040516100dc919061259e565b60405180910390f35b3480156100f157600080fd5b5061010c600480360381019061010791906125b9565b610e6e565b60405161011b939291906126a4565b60405180910390f35b34801561013057600080fd5b5061014b600480360381019061014691906125b9565b6111d2565b60405161015891906126e2565b60405180910390f35b610169611432565b005b610185600480360381019061018091906125b9565b611629565b005b34801561019357600080fd5b506101ae60048036038101906101a99190612769565b611a04565b005b3480156101bc57600080fd5b506101c5611f98565b6040516101d291906127c5565b60405180910390f35b3480156101e757600080fd5b506101f0611fbc565b6040516101fd9190612494565b60405180910390f35b60006102347f2e9a73b1472c05fbe22ac1537406132aa10f5c07359dacff52aaad5463cbb16f60001b611fc2565b6102607fc720e1b47e8378efe0f0c7e07ff8fd5468491bb250343af9a3836df5c0729a9260001b611fc2565b61028c7f26dcb315eaccef1726ebd2e346eb017bd7a342cd3f5159db7e3c4e844048c82660001b611fc2565b600180549050905090565b60006102c57fc7ae7de24529fcf6a8b6832b34beba9bf44527c2182b5d8a6fd2886edb611e1760001b611fc2565b6102f17f8138f04eedcd49f57bb6396bc5a0bd0e74fb1e6238ddb60432ba530b2c5834d460001b611fc2565b61031d7f7154ce2ec3f664368098ba1936de1f863b96cdc7fc90c396c54e746a20d5b23860001b611fc2565b6103497f5dd161e39408f774bb9c6a369937cdf00cb8b97b62649cb83a053242bf76c52160001b611fc2565b662386f26fc100003414610392576040517f08c379a00000000000000000000000000000000000000000000000000000000081526004016103899061283d565b60405180910390fd5b6103be7fbf51eee7ed818b872586d4dc93169b8ece4c8af26a7ff84244206c1094669c3660001b611fc2565b6103ea7f1b64f665be43664e2c2fbc947401ad997dd6ee79b80e0b5f5028c3d4b699921960001b611fc2565b6104167f7dc365142b4545099621f15f01057f9c9c00d64a63004b03b01659dd12d2dfa060001b611fc2565b6104427f8dbfbc62c80926cf11eeacd54b882cf1c6ce7461711ea420d067eb77ecc7b76160001b611fc2565b6001805490508310610489576040517f08c379a0000000000000000000000000000000000000000000000000000000008152600401610480906128a9565b60405180910390fd5b6104b57fed4dadddc6701707568ade2b1e5029bb4ca0954ea4d3af18772f85cfe7366a3a60001b611fc2565b6104e17f7c6a56ee239f3d6f5085f756eb2d38a4007506f146c184676043dfd30e809ca060001b611fc2565b61050d7fd8c23a5158cfbd0a1c1a72fe743ff151e45d034b56bf6aa21b4849f4145f350960001b611fc2565b6105397f0ad92c49da74db7914c4c627837dbda641136384a04761df2c5b13caa4bbfa1260001b611fc2565b600015156105478433611fc5565b151514610589576040517f08c379a000000000000000000000000000000000000000000000000000000000815260040161058090612915565b60405180910390fd5b6105b57f978e978ea77a61d0a31d684892f5d11ae9aeaa1e1a04146c99e74f702ce5e6b060001b611fc2565b6105e17fbc0aa16d3fb35597d0db28ededd8dccd3dfe38e93d518a5c58c97005521464d860001b611fc2565b61060d7fb1c11c7b289f314cf9f57ee04793797e3ec611ddf87c32d0d0f4e6f541a3e16460001b611fc2565b6106397fdc12a5d8151d810810d9074776a14f32d696b1a9e53ec8d36d2ca7378825115460001b611fc2565b600015156001848154811061065157610650612935565b5b906000526020600020906008020160040160009054906101000a900460ff161515146106b2576040517f08c379a00000000000000000000000000000000000000000000000000000000081526004016106a9906129b0565b60405180910390fd5b6106de7fe7513130b0fc9b5ef0b63ecf894cf19b548e3cd03b4e091400e3bc7a1061466860001b611fc2565b61070a7f37802cfe33e8d4f6d185289628dc47546ea5a255279bc35aa5f5748f8a15567160001b611fc2565b6107367f67e31cbffcceb12d018bdbdace55576c107a753a1b5aaf9451b7e0d876f2402660001b611fc2565b6107627fe7f55fd3892f2181c8c06f03e9444fef34a4559f0e2502f8b56e9d64746cc40560001b611fc2565b60011515610770848461226f565b1515146107b2576040517f08c379a00000000000000000000000000000000000000000000000000000000081526004016107a990612a1c565b60405180910390fd5b6107de7ff425057c7b7c17a9c190a71abe8ac3572fe522923be5aca3ce4fe7e44f99290360001b611fc2565b61080a7f0f38c3cf47ccc12feab9a0ad1ab0ef945ff42996390ae38a871366a7797ebc1a60001b611fc2565b6108367fc9aa47d86339a30823edd2a5d192bea4c85f4485e05f02ad1b590a76317dee5f60001b611fc2565b6108627f77d428402339c1657bd3b145990537aa9cc6ce590eadb7506ac421902d0930ee60001b611fc2565b6203f4806001848154811061087a57610879612935565b5b9060005260206000209060080201600501546108969190612a6b565b42106108d7576040517f08c379a00000000000000000000000000000000000000000000000000000000081526004016108ce90612b0d565b60405180910390fd5b6109037f1b6030b627c32d498a19236e424f3dc7796582db694c07652000bf8f215a96e160001b611fc2565b61092f7fd56eaa09886e66012e865757f5fd8ce78b31cf2071710cefe1dde1aed68a635560001b611fc2565b6001838154811061094357610942612935565b5b906000526020600020906008020160020160006001858154811061096a57610969612935565b5b906000526020600020906008020160010160008573ffffffffffffffffffffffffffffffffffffffff1673ffffffffffffffffffffffffffffffffffffffff16815260200190815260200160002054815260200190815260200160002060008154809291906109d890612b2d565b9190505550610a097ff82b6aa955425eff2f7211757f1fc6239f23e64607a60e2a32378714df43810960001b611fc2565b610a357f38129ea06999ea435e34a6a9157c73ed3d4d35cca3a4f743c69f503f8016577460001b611fc2565b60018381548110610a4957610a48612935565b5b9060005260206000209060080201600301339080600181540180825580915050600190039060005260206000200160009091909190916101000a81548173ffffffffffffffffffffffffffffffffffffffff021916908373ffffffffffffffffffffffffffffffffffffffff160217905550610ae77f6fd074e57ca29cddf928d8ac52164e16ae444da28c2d1d7e8d1be943fb75e51960001b611fc2565b610b137f17a4be80224b1bdf65b698b06ea0b7166e917b9e87f36eda1547647c9c61da6360001b611fc2565b60018381548110610b2757610b26612935565b5b90600052602060002090600802016006015460018481548110610b4d57610b4c612935565b5b9060005260206000209060080201600201600060018681548110610b7457610b73612935565b5b906000526020600020906008020160010160008673ffffffffffffffffffffffffffffffffffffffff1673ffffffffffffffffffffffffffffffffffffffff168152602001908152602001600020548152602001908152602001600020541115610ddf57610c047fa3e5347112a9069c0d5aa529f22725541302b0325c14d1f697a1725adc2aec4460001b611fc2565b610c307f5926943eec3a62a73006f5e82eab212492e5bf91404bac8b2c520b1cbd92967660001b611fc2565b610c5c7f191a2d41fdf30f31d84ea50baf7f915dc8a838cdeba9c7c7daa26ea6c6f02c5f60001b611fc2565b60018381548110610c7057610c6f612935565b5b9060005260206000209060080201600201600060018581548110610c9757610c96612935565b5b906000526020600020906008020160010160008573ffffffffffffffffffffffffffffffffffffffff1673ffffffffffffffffffffffffffffffffffffffff1681526020019081526020016000205481526020019081526020016000205460018481548110610d0957610d08612935565b5b906000526020600020906008020160060181905550610d4a7f4aea73b054df25e55c7fdf7f13bcfb992a13180d8b5f761a6303fec0eb472b1360001b611fc2565b610d767f23ca3fb8463fec4568cfdbb31de036d5675289c7aa54af2bb3ce7d060473f6ec60001b611fc2565b8160018481548110610d8b57610d8a612935565b5b906000526020600020906008020160070160006101000a81548173ffffffffffffffffffffffffffffffffffffffff021916908373ffffffffffffffffffffffffffffffffffffffff160217905550610e0c565b610e0b7ff866f8f81666d2f207ce2c5c2ef143ee52647bb08ec03f927d49b76ae2f5833b60001b611fc2565b5b610e387f45050c97101992eb79d75f7dc3f4f6de276271d0832d8ecde810695e5dc8936860001b611fc2565b610e647f049aaa49ddc996006edf25c20ad9c2e5d14261f47742bf4f10f73bf84706debb60001b611fc2565b6001905092915050565b6060600080610e9f7f7e9d70a35d598107e60562332de8d7f44747500543cb315d37d397c75edfe4a460001b611fc2565b610ecb7f4ed810f474d73158ff681d7f805d456dd5f87025b1d66545485b6e48f4965a8d60001b611fc2565b610ef77ffd8ae19baa90e8e3c03e8114df550128656fbdb595e10837eed77ca359aa60c560001b611fc2565b600060018581548110610f0d57610f0c612935565b5b90600052602060002090600802016000018054905067ffffffffffffffff811115610f3b57610f3a612b75565b5b604051908082528060200260200182016040528015610f695781602001602082028036833780820191505090505b509050610f987ffb7be57863b1006e5f1e59b49cf8ee6be5c56b914447d9b9259456c75f07f71660001b611fc2565b610fc47f3fa9c8cfc6d80075a073b52ab943fd1c6ecebf200c223dc6c7a3ddcbc931eabf60001b611fc2565b60005b60018681548110610fdb57610fda612935565b5b906000526020600020906008020160000180549050811015611111576110237f947e57b48ef96ba7a834cd5eea2627a8c9812631e99d12472502dd195676fc5960001b611fc2565b61104f7f709f7fcef0959d86a5e1e3f3af34fbd52a39182c018ef3b00480b52f8d5850d660001b611fc2565b6001868154811061106357611062612935565b5b9060005260206000209060080201600001818154811061108657611085612935565b5b9060005260206000200160009054906101000a900473ffffffffffffffffffffffffffffffffffffffff168282815181106110c4576110c3612935565b5b602002602001019073ffffffffffffffffffffffffffffffffffffffff16908173ffffffffffffffffffffffffffffffffffffffff1681525050808061110990612b2d565b915050610fc7565b5061113e7f2ae4111586304b7eafba1e47b8b44644b99e0f266ada4904979a09a3e7a2463860001b611fc2565b61116a7f67693b7a87e0c8820e6d45673ebe8350bdd69edb8dabcce62051756c748b646360001b611fc2565b806001868154811061117f5761117e612935565b5b906000526020600020906008020160040160009054906101000a900460ff16600187815481106111b2576111b1612935565b5b906000526020600020906008020160050154935093509350509193909250565b60606112007f8e62386100aadea9854ea8c386bd22196f8a4bebc3cde7ace1c61c410cd6155260001b611fc2565b61122c7ffde875c60f9f83ac9f972576645741c000d1aa52ad2a1ee4154ec485019bc01860001b611fc2565b6112587f57ff449fe76021fe396af633102106a2cf0dbc72086a763b1bfb2f0f7c26350960001b611fc2565b60006001838154811061126e5761126d612935565b5b90600052602060002090600802016000018054905067ffffffffffffffff81111561129c5761129b612b75565b5b6040519080825280602002602001820160405280156112ca5781602001602082028036833780820191505090505b5090506112f97ffbcaae159450c656639bd63c0797fd72610598d13d1876a934c8b8446080fbba60001b611fc2565b6113257f806ba0b680b399f99ac5fb205aab9c8c648a1b226a93da10f18d36e4e2c2233260001b611fc2565b6001838154811061133957611338612935565b5b90600052602060002090600802016000018054806020026020016040519081016040528092919081815260200182805480156113ca57602002820191906000526020600020905b8160009054906101000a900473ffffffffffffffffffffffffffffffffffffffff1673ffffffffffffffffffffffffffffffffffffffff1681526020019060010190808311611380575b505050505090506113fd7f86aa9d12a6fcaed6fc9611cd7ef60427b8ca542454cec04e89d9de0d5dcc810860001b611fc2565b6114297fd6f296658e5a122c58445f7c2226aabb4f2b2dcb3719ca21c92012f99c347db260001b611fc2565b80915050919050565b61145e7fb1b24391df0d8fcb027bb00c7c2dbd44f6ac097e283f6d73fc79d5866e79fc5460001b611fc2565b61148a7ffedf50a2d25ecb1794a057c846cedeafdba9201f661d7ac7098f4d3a1e3ca90e60001b611fc2565b6114b67f32707a3e000176594fd88a92fdd76bf798173ed343a37dcc618e69c74eb3d6a960001b611fc2565b6114e27f5fb39a487b7bc1bf838b7044958f25d4c4075774d9f385da3ade443c3671650360001b611fc2565b60008054906101000a900473ffffffffffffffffffffffffffffffffffffffff1673ffffffffffffffffffffffffffffffffffffffff163373ffffffffffffffffffffffffffffffffffffffff161461153a57600080fd5b6115667fa67fb991e5367b6c0d5862268b179b5d13d2e166302949aa24500ff08e067f1060001b611fc2565b6115927fa753b4b5a3dc38f481cdc4e6595855c55255b3cea8bdb6ffa4785e44ae23f03160001b611fc2565b6115be7f30f198994381e20784484ab248cbbd89765b153fc30e0ba4fce07c0fd77d121560001b611fc2565b60008054906101000a900473ffffffffffffffffffffffffffffffffffffffff1673ffffffffffffffffffffffffffffffffffffffff166108fc6002549081150290604051600060405180830381858888f19350505050158015611626573d6000803e3d6000fd5b50565b6116557fe9ad628c73f92f1e3b692d589b82e101a4dc712e762eb01adff34c0520c75d1860001b611fc2565b6116817fcc286a67ebe41f7d91683ee9411a580432cd9580fa0da70d5b455bba07dcb37560001b611fc2565b6116ad7f2aa4809d6aff080c64495583c8bac5016044b038b1c1790addfb8f4b1e05698f60001b611fc2565b6116d97fed8a42c55bd26a8876f1966be08a7bbb9b721034645c72053e8caf7faf0b0aa860001b611fc2565b6203f480600182815481106116f1576116f0612935565b5b90600052602060002090600802016005015461170d9190612a6b565b421161171857600080fd5b6117447f5d8df9f0942d3da3950176b239e507542f407bbc95996230be52f7a91d5cf13760001b611fc2565b6117707fe7697fcda79b83195cc976a6ac1cd8071d31b35fffe4e84ee6123aa632e0d3d660001b611fc2565b61179c7f32cdcf627bb443f53856493bd11dcbf322b7b900eaffdba1631314279f5553c060001b611fc2565b60018082815481106117b1576117b0612935565b5b906000526020600020906008020160040160006101000a81548160ff0219169083151502179055506118057f5265d1a60cd31e27b3baefc96f57773271b022db7179cd424266e32e75457eaa60001b611fc2565b6118317f7f7ebb0d3ff824c916adc5052d2032d44123880ba18e5ba07808f3ab6500bc6a60001b611fc2565b6000662386f26fc100006001838154811061184f5761184e612935565b5b90600052602060002090600802016003018054905061186e9190612ba4565b905061189c7fd1f4566814351105db5fe2624e4daedb5c35a76c48ad7ac919dec7d06f5176b560001b611fc2565b6118c87f1eee92159a69f12a897b6795aa8e88504396655fea51d0a45222dc9d5392399460001b611fc2565b600182815481106118dc576118db612935565b5b906000526020600020906008020160070160009054906101000a900473ffffffffffffffffffffffffffffffffffffffff1673ffffffffffffffffffffffffffffffffffffffff166108fc600a6009846119369190612ba4565b6119409190612c2d565b9081150290604051600060405180830381858888f1935050505015801561196b573d6000803e3d6000fd5b506119987f7c4b3d298999cad8b34e502043ce0907d6c029fb05712bb34683b44b6b4cf04260001b611fc2565b6119c47f439051756e8a41b0c452b3b3dd316b343dc66b50a6ac11e976e870029b04d99460001b611fc2565b600a6009826119d39190612ba4565b6119dd9190612c2d565b816119e89190612c5e565b600260008282546119f99190612a6b565b925050819055505050565b611a307fdef27571b7605754b15507d27bce8a3e133cd6f0252c1ee9e6b5481fe5a3c02d60001b611fc2565b611a5c7f6935a96b4ad225b800c68022e8e3fe711187c02fd46177d3b8c75b46c94911ff60001b611fc2565b611a887f8dce1c0afa7ba1aa0749667493a5c7471bb5dcc733534bac708c363287bddcf360001b611fc2565b611ab47f347aa1665e6c8d209174a21e1a6267a5f688aa7d6e0f49d57fad27dfc656fd1860001b611fc2565b60008054906101000a900473ffffffffffffffffffffffffffffffffffffffff1673ffffffffffffffffffffffffffffffffffffffff163373ffffffffffffffffffffffffffffffffffffffff1614611b0c57600080fd5b611b387f024e768aac29a5cef226bf3bfde7b5d4c69ba148e138adc19530403b9d4036b860001b611fc2565b611b647f3444601a7b42b5aa7d22dabbcdfda179884f2381f163647d65684d8f92c4a96360001b611fc2565b611b907f4073b5327859530f4c235eb056376447508a638302597fd591f51734a0ae19ef60001b611fc2565b60006001805490509050611bc67f760aec3ec3dde10257a2febcbe437291ac908c77a57e0e770b56a5c8a118c79660001b611fc2565b611bf27f15067027b35a46147bd4e4774438423f706e78f8da2c1507c6f7fae4b2edf49c60001b611fc2565b6001808160018154018082558091505003906000526020600020905050611c3b7f53ea4313b2198dc6f8727057f585048f55e05923413f5498b531c84fc950afd460001b611fc2565b611c677f0a249081ad83576f7f98047a39bf2d0fc964de1d67ad0b483e09ae060ee8494860001b611fc2565b600060018281548110611c7d57611c7c612935565b5b90600052602060002090600802019050611cb97fb7df51e3d964d2652077397134d455b29bd4e48fdbb21c88c6cca42563b4509660001b611fc2565b611ce57f39d0b4c5350b231aebc2cbd249795f5e067ae1874ae59ee20670cccb7a7e5b0960001b611fc2565b60008160040160006101000a81548160ff021916908315150217905550611d2e7f0d84a19f453fc789370181a10f80a358af2fea84a75349ebabf7b0057552341860001b611fc2565b611d5a7fb41698b56428eddca0352e1c4f7c0ce3f1bb52e557b21894b4aa987509677a4f60001b611fc2565b428160050181905550611d8f7f64bf7b5fe9233c2910564e58138b586e38b6eaf1b177d16c3592bd0a7e7c7e0460001b611fc2565b611dbb7f6e9cdd243978d066110f15022a195acea0fc869ffa30055895fb2ad3b2bc0ebd60001b611fc2565b60005b84849050811015611f9157611df57fa963102966dd9100863b77e0e8a0670726ebf5ceddcbecd5b81d5ba7c8e7940560001b611fc2565b611e217fa5da0f38bc969595896f54fe0a9ff2e05f335537347e15ebbc3231c131f9c9c360001b611fc2565b81600001858583818110611e3857611e37612935565b5b9050602002016020810190611e4d9190612c92565b9080600181540180825580915050600190039060005260206000200160009091909190916101000a81548173ffffffffffffffffffffffffffffffffffffffff021916908373ffffffffffffffffffffffffffffffffffffffff160217905550611ed97fd81fd9fbb683a99300ee091799d471c42f3d99e8589cf41e511f75f000c9820c60001b611fc2565b611f057f9ddc069327de041fc2e7df0069692fccb1de6066f939ad46404eba8c5ef31fbf60001b611fc2565b600181611f129190612a6b565b826001016000878785818110611f2b57611f2a612935565b5b9050602002016020810190611f409190612c92565b73ffffffffffffffffffffffffffffffffffffffff1673ffffffffffffffffffffffffffffffffffffffff168152602001908152602001600020819055508080611f8990612b2d565b915050611dbe565b5050505050565b60008054906101000a900473ffffffffffffffffffffffffffffffffffffffff1681565b60025481565b50565b6000611ff37fb6e74ca024f911926f47cb814278ff3533b4496f1986548cd43b229ee746ed6660001b611fc2565b61201f7f5ae8ba14604013c868f3aeb9c3c8a52124adb8888a4601c11cec542abf41744860001b611fc2565b61204b7fa72201246540394933ba16f55f894d7f5b9ff189ba2836dccad77d288ab14bd760001b611fc2565b60005b6001848154811061206257612061612935565b5b90600052602060002090600802016003018054905081101561220b576120aa7f28c7a1ce1bc7adf0e90f7aa4335048e5113ba5bbd95c8714dc9dc0acdf51f01b60001b611fc2565b6120d67fe6b0e58f05ea7fd6679d297888bb7465eb1349396db4c2955e50f3a5cea5e2f260001b611fc2565b8273ffffffffffffffffffffffffffffffffffffffff166001858154811061210157612100612935565b5b9060005260206000209060080201600301828154811061212457612123612935565b5b9060005260206000200160009054906101000a900473ffffffffffffffffffffffffffffffffffffffff1673ffffffffffffffffffffffffffffffffffffffff16036121cc576121967f48035a5573e8441d61b186bd9b63b3a1f08f904ce92d226a7407207c001b0ef760001b611fc2565b6121c27f0cb6b11ed7a5ea0b8fbdb3e582d76d311e751ea57e51b6cd83b4dc94f898541660001b611fc2565b6001915050612269565b6121f87fcf6a82b73fc79e8a5b2ca68c46b097b19a77eeef62bb0239e2aa2d69b3f21c3b60001b611fc2565b808061220390612b2d565b91505061204e565b506122387f9fb1069f014d6f8e1b921169e45d065fa5eb856eb45745d44f121f1ab8d6689760001b611fc2565b6122647f37b997b572729aeff9e759bccf1e8562be2ad08cd5c4d8a71e7ddf64f29c92d960001b611fc2565b600090505b92915050565b600061229d7faad24890c690a0aec24c75f517c3c214c880d22ed18ce800f844509efe6f236d60001b611fc2565b6122c97ff49e2594ca0540cb1a0d9d66a0a61054163b3380116e10e40b903a285e4e2d2260001b611fc2565b6122f57f8de414536b6c2c08f9438864652d7f73cf5e6a4fdc1a0e34f3f4ff43068536e360001b611fc2565b60006001848154811061230b5761230a612935565b5b906000526020600020906008020160010160008473ffffffffffffffffffffffffffffffffffffffff1673ffffffffffffffffffffffffffffffffffffffff16815260200190815260200160002054146123ec5761238b7f3825eb9e3cf891c452d99943b5646b7019a99081d32ec6ba9abbbb226468d46260001b611fc2565b6123b77f4b1bf8a03420f034554a97ccc9ba1953705a60105e3e995e287738345b721d8860001b611fc2565b6123e37fe4f627dd7b0300bde81f016d6a8ab06a771803a4b3082ea4d0734967f7f060c460001b611fc2565b60019050612475565b6124187f47798309b516a08eef5c0d89e4c306d02e4a46ced4f76093ca66f3fcae0b45c260001b611fc2565b6124447f9692a21e5cea3c1ad82aaed2765d5326c4f4e5f9e17dfe7d5fad0907254f97dd60001b611fc2565b6124707faed88fd0efbdfb7f1ce94b244d4874de71e8d6263f1269e7280b24e11cb3d2ad60001b611fc2565b600090505b92915050565b6000819050919050565b61248e8161247b565b82525050565b60006020820190506124a96000830184612485565b92915050565b600080fd5b600080fd5b6124c28161247b565b81146124cd57600080fd5b50565b6000813590506124df816124b9565b92915050565b600073ffffffffffffffffffffffffffffffffffffffff82169050919050565b6000612510826124e5565b9050919050565b61252081612505565b811461252b57600080fd5b50565b60008135905061253d81612517565b92915050565b6000806040838503121561255a576125596124af565b5b6000612568858286016124d0565b92505060206125798582860161252e565b9150509250929050565b60008115159050919050565b61259881612583565b82525050565b60006020820190506125b3600083018461258f565b92915050565b6000602082840312156125cf576125ce6124af565b5b60006125dd848285016124d0565b91505092915050565b600081519050919050565b600082825260208201905092915050565b6000819050602082019050919050565b61261b81612505565b82525050565b600061262d8383612612565b60208301905092915050565b6000602082019050919050565b6000612651826125e6565b61265b81856125f1565b935061266683612602565b8060005b8381101561269757815161267e8882612621565b975061268983612639565b92505060018101905061266a565b5085935050505092915050565b600060608201905081810360008301526126be8186612646565b90506126cd602083018561258f565b6126da6040830184612485565b949350505050565b600060208201905081810360008301526126fc8184612646565b905092915050565b600080fd5b600080fd5b600080fd5b60008083601f84011261272957612728612704565b5b8235905067ffffffffffffffff81111561274657612745612709565b5b6020830191508360208202830111156127625761276161270e565b5b9250929050565b600080602083850312156127805761277f6124af565b5b600083013567ffffffffffffffff81111561279e5761279d6124b4565b5b6127aa85828601612713565b92509250509250929050565b6127bf81612505565b82525050565b60006020820190506127da60008301846127b6565b92915050565b600082825260208201905092915050565b7f496e636f727265637420616d6f756e74206f6620657468657273000000000000600082015250565b6000612827601a836127e0565b9150612832826127f1565b602082019050919050565b600060208201905081810360008301526128568161281a565b9050919050565b7f506f6c6c206964203e20706f6c6c7320616d6f756e7400000000000000000000600082015250565b60006128936016836127e0565b915061289e8261285d565b602082019050919050565b600060208201905081810360008301526128c281612886565b9050919050565b7f416c726561647920766f74656400000000000000000000000000000000000000600082015250565b60006128ff600d836127e0565b915061290a826128c9565b602082019050919050565b6000602082019050818103600083015261292e816128f2565b9050919050565b7f4e487b7100000000000000000000000000000000000000000000000000000000600052603260045260246000fd5b7f506f6c6c2069732066696e697368656400000000000000000000000000000000600082015250565b600061299a6010836127e0565b91506129a582612964565b602082019050919050565b600060208201905081810360008301526129c98161298d565b9050919050565b7f496e636f72726563742063616e64696461746500000000000000000000000000600082015250565b6000612a066013836127e0565b9150612a11826129d0565b602082019050919050565b60006020820190508181036000830152612a35816129f9565b9050919050565b7f4e487b7100000000000000000000000000000000000000000000000000000000600052601160045260246000fd5b6000612a768261247b565b9150612a818361247b565b9250827fffffffffffffffffffffffffffffffffffffffffffffffffffffffffffffffff03821115612ab657612ab5612a3c565b5b828201905092915050565b7f546f6f206c617465000000000000000000000000000000000000000000000000600082015250565b6000612af76008836127e0565b9150612b0282612ac1565b602082019050919050565b60006020820190508181036000830152612b2681612aea565b9050919050565b6000612b388261247b565b91507fffffffffffffffffffffffffffffffffffffffffffffffffffffffffffffffff8203612b6a57612b69612a3c565b5b600182019050919050565b7f4e487b7100000000000000000000000000000000000000000000000000000000600052604160045260246000fd5b6000612baf8261247b565b9150612bba8361247b565b9250817fffffffffffffffffffffffffffffffffffffffffffffffffffffffffffffffff0483118215151615612bf357612bf2612a3c565b5b828202905092915050565b7f4e487b7100000000000000000000000000000000000000000000000000000000600052601260045260246000fd5b6000612c388261247b565b9150612c438361247b565b925082612c5357612c52612bfe565b5b828204905092915050565b6000612c698261247b565b9150612c748361247b565b925082821015612c8757612c86612a3c565b5b828203905092915050565b600060208284031215612ca857612ca76124af565b5b6000612cb68482850161252e565b9150509291505056fea264697066735822122030388970483dedcea9b47e03d46fd010ccc343bfe8ca9c333e6be0617a40d91d64736f6c634300080d0033",
  "linkReferences": {},
  "deployedLinkReferences": {}
}